:100000000C9460010C94190B0C94F20A0C941A0CC9
:100010000C941A0C0C941A0C0C9488010C94880102
:100020000C9488010C9488010C9488010C9488012C
:100030000C9488010C94FD010C9488010C948801A7
:100040000C94A80A0C9488010C949B090C947509D3
:100050000C9488010C9488010C9488010C948801FC
:100060000C9488010C94880100407A10F35A00A087
:10007000724E18090010A5D4E80000E87648170071
:1000800000E40B54020000CA9A3B000000E1F505B1
:10009000000080969800000040420F000000A086FB
:1000A00001000000102700000000E803000000002D
:1000B0006400000000000A000000000001000000D1
:1000C00000002C76D888DC674F0823DFC1DFAE59EB
:1000D000E1B1B796E5E3E453C63AE651997696E87E
:1000E000E6C28426EB898C9B62ED407C6FFCEFBC02
:1000F0009C9F40F2BAA56FA5F490055A2AF75C932D
:100100006B6CF9676DC11BFCE0E40D47FEF520E662
:10011000B500D0ED902E0300943577050080841E45
:10012000080000204E0A000000C80C333333330FA0
:10013000986E12831141EF8D2114893BE65516CF3D
:10014000FEE6DB18D1844B381BF77C1D901DA4BB49
:10015000E424203284725E228100C9F124ECA1E5FE
:100160003D27005EBCE2613FDD83C29C7E20A3FD93
:100170001F419DC3217FFCA2401E5F01E3BD3E6085
:1001800082DC237D9FC1421CFEA0E1BF5D0380DEB7
:100190003C62BEE0025CDF81633D7C22C09E1D4369
:1001A000A1FF4618FAA427799BC584DA3866E5BB17
:1001B0005907DB856739BAE406581947A5FB782645
:1001C000C49A653BD987045AB8E6A7F91B45C69877
:1001D0007A24F8A6441A99C7257B3A6486D85B0529
:1001E000E7B98CD2306EEDB3510F4E10F2AC2F71D7
:1001F00093CD114FADF3702ECC92D38D6F31B2EC05
:100200000E50AFF1134DCE90722C6D33D18F0C5236
:10021000B0EE326C8ED0530DEFB1F0AE4C1291CFE8
:100220002D73CA947628ABF517490856B4EA693796
:10023000D58B5709EBB536688AD495CB2977F4AAC4
:100240004816E9B7550B88D6346A2B7597C94A14F6
:10025000F6A8742AC896154BA9F7B6E80A54D789A8
:100260006B3500000000240027002A000000000871
:10027000000201000003040700000000000000006D
:1002800000000000250028002B00000000002300D3
:1002900026002900040404040404040402020202E7
:1002A0000202030303030303010204081020408039
:1002B00001020408102001020408102077162311FF
:1002C00011241FBECFEFD8E0DEBFCDBF15E0A0E008
:1002D000B1E0E0EAF6E402C005900D92AC3AB10755
:1002E000D9F727E0ACEAB5E001C01D92A937B20703
:1002F000E1F711E0CFE5D1E004C02197FE010E94B3
:10030000531FCE35D107C9F70E9451110C944323D6
:100310000C940000FC0101900020E9F73197AF0137
:10032000481B590BFB0101900020E9F73197E61BB0
:10033000F70BE417F50728F00E944A2021E0892BEB
:1003400009F020E0822F08956EE371E08BE096E0E3
:100350000E940B1081E08093B5050895CF92DF9243
:10036000EF92FF920F931F93CF93DF937C01FC01D9
:10037000C480D58004EF16E0C0E0D0E0F8018481AD
:1003800095818C159D0531F580819181F701608102
:100390007181009719F061157105C1F4611571053E
:1003A00059F0C114D104F9F0FB01208130E0882715
:1003B0009927821B930B0CC00097A9F0C114D1049C
:1003C00091F0FC019081892F90E002C00E943A20B8
:1003D000892B49F021960A5F1F4FC530D10571F670
:1003E0008FEF9FEF01C0CE01DF91CF911F910F9151
:1003F000FF90EF90DF90CF9008951F920F920FB66D
:100400000F9211242F923F924F925F926F927F92A0
:100410008F929F92AF92BF92CF92DF92EF92FF9214
:100420000F931F932F933F934F935F936F937F93FC
:100430008F939F93AF93BF93EF93FF93CF93DF93EC
:10044000CDB7DEB72897DEBFCDBF8CED9BE0909394
:100450008500809384002091AC053091AD054091DA
:10046000AE055091AF056091B0057091B1058091D6
:10047000B2059091B305A1E00E94271F29833A831A
:100480004B835C8368877F838D839E832093AC0539
:100490003093AD054093AE055093AF056093B00522
:1004A0007093B105FD81F093B2059093B30560910F
:1004B0000501709106011B01412C512C612C712CFE
:1004C000430180910401883691F08D3649F08436DD
:1004D000D1F480E090E020E831E540E050E00DC04C
:1004E00080E090E02CE330E040E050E006C080E0A7
:1004F00090E020E13EE040E050E00E945C1E1901E7
:100500002A013B014C0151016201730184012981DF
:100510003A814B815C8168857F818D819E810E94BB
:10052000871EA0E00E94331F19F481E08093B40578
:1005300028960FB6F894DEBF0FBECDBFDF91CF91E6
:10054000FF91EF91BF91AF919F918F917F916F91AB
:100550005F914F913F912F911F910F91FF90EF90DD
:10056000DF90CF90BF90AF909F908F907F906F90D3
:100570005F904F903F902F900F900FBE0F901F9065
:10058000189561E080E10E94F60960E08FE00C942C
:10059000F6096115710579F0FB0101900020E9F77A
:1005A0003197AF01461B570BDC01ED91FC910280A6
:1005B000F381E02D099480E090E008952F923F921E
:1005C0004F925F926F927F928F929F92AF92BF9263
:1005D000CF92DF92EF92FF920F931F93CF93DF930F
:1005E000CDB7DEB76B970FB6F894DEBF0FBECDBFA9
:1005F0009D8B8C8B8FE190E00E94A2188C01CC2403
:10060000C394D12C18012EE1220E311C2EE1822E32
:10061000912C580187E0A80EB11CD8011896BF8B09
:10062000AE8BAC89BD898D919C918C159D0508F48C
:1006300088C38EE090E00E94A2187C014AE0B601D7
:10064000CE0101960E94810F6EE471E0CE01079603
:100650000E94AD0FBE016F5F7F4FCE0107960E94D3
:10066000310F6DE372E00E94180FFC01608171810F
:1006700025E030E047E551E08EE297E00E94AD0BC7
:100680003C01CE0107960E947C0FCE0101960E948C
:100690007C0F672809F044C080E397E00E944C0972
:1006A0008297D1F780E397E00E944C098297D1F7B7
:1006B00080E397E00E944C098297D1F72701370128
:1006C000FDE06F0E711C0E949E0E97FF04C0D701C3
:1006D0001D961C920AC082329105C9F3F2018193E2
:1006E0002F01E615F70579F7F2CF80E397E00E9436
:1006F0004C090A97D1F738010E949E0E97FF06C059
:10070000D8015E961C92B1E0BB8B0BC08A3091057C
:10071000B9F3F30181933F01E215F30569F7F0CFD7
:100720001B8AB70180911207909113070E943A200B
:100730003C01E114F10419F0C7010E943719672840
:1007400009F0E9C26FE372E0CE010D960E94AD0F91
:10075000B8018EE591E00E948A01882319F060E6D5
:1007600071E010C2B80188EA93E00E948A018823F0
:1007700029F010920B016BEB71E004C2B80186ED19
:1007800091E00E948A01882321F081E080930B018F
:10079000FDC1B8018CED91E00E948A01882309F423
:1007A00041C0D80117968C9117978D33C1F51896D3
:1007B0008C91189790ED980F923088F5082E000CC8
:1007C000990BC09716966C916033E1F490930301F6
:1007D00080930201892B41F4E99886EC98E090938C
:1007E0000A0180930901D2C1E4EAF1E0F0930A0121
:1007F000E093090180916900837F8860809369009C
:10080000E99AC4C1613329F49093010180930001F6
:10081000BDC1062E000C770B6D517E4FB3C162EF48
:1008200071E0B0C1B8018CE992E00E948A0188238E
:1008300009F451C03501F501E12CF12C21918FEF24
:10084000E81AF80A2D3651F0283641F0243631F0F6
:10085000233721F098E0E916F10481F7C7010196EA
:100860002B8F0E94A2182C01FC01E80EF91E2B8D83
:10087000EE15FF0529F0D3018D913D018193F8CF4D
:100880001082C2012B8F0E94CF197C012B8D411445
:10089000510421F0C2010E9437192B8DB4E6EB16EA
:1008A000F10438F0E3E6F0E0F0930601E09305018F
:1008B00004C0F0920601E09205012D3631F0283691
:1008C00021F0243611F0233719F4209304015EC17E
:1008D0006FEF71E057C1B8018CE092E00E948A018D
:1008E000882391F16E897F89CE0107960E94AD0F12
:1008F0006FE372E0CE0101960E94AD0FCE0101962A
:100900000E94AE017C01CE0101960E947C0FFFEF98
:10091000EF16FF0609F433C286E08E9D90018F9D8D
:10092000300D1124C9018C50994F6F817885611564
:10093000710529F04B855C850E94440F02C00E941E
:10094000060FCE01079624C0B80185E192E00E940F
:100950008A01882301F1B501CE0101960E94AD0FF5
:10096000CE0101960E94AE018F3F2FEF920709F44E
:100970000DC246E0489F9001499F300D11246FE35E
:1009800072E0C9018C50994F0E94650FCE0101960B
:100990000E947C0FFBC0B80182EB91E00E948A01AB
:1009A000882309F481C06DE172E08BE096E00E943B
:1009B0000B102FE030E049E252E06CE272E08EE290
:1009C00097E00E94AD0B892B09F0E0C060E472E073
:1009D0008BE096E00E940B1045E050E062E572E08B
:1009E0008EE297E00E94400B892B09F0CFC080E394
:1009F00097E00E944C098297D1F76FE372E0CE0135
:100A000001960E94AD0F0E949E0E97FD0FC08A3086
:100A1000910561F08F83188641E050E0BE01695F67
:100A20007F4FCE0101960E94D80EEDCF8D859E8519
:100A30000097A9F069817A816115710571F04F8580
:100A400058892D813E814217530738F00E94432078
:100A50008D819E819A8B898B12C00E943719898162
:100A60009A819E878D878B819C81988B8F878D81C2
:100A70009E819A8B898B1A8219821C821B821E820C
:100A80001D82CE0101960E947C0F49895A896D858D
:100A90007E858BE096E00E94000E6DE372E08BE0B5
:100AA00096E00E94C90272C0B8018AE592E00E94F5
:100AB0008A01882309F464C09A82898284E090E0E4
:100AC00098878F83BE016F5F7F4FCE0107960E948C
:100AD000BB0C82E30E94760E0E94921C0E94F31DC2
:100AE00060931D0770931E0780931F079093200744
:100AF00082E30E94760E40901D0750901E07609082
:100B00001F077090200764197509860997090E94CC
:100B1000921C9B01AC019A828982A1E0B0E0B88767
:100B2000AF83BE016F5F7F4FCE0107962B8F388F4B
:100B3000498F5A8F0E94BB0C82E30E94760E409030
:100B40001D0750901E0760901F07709020076419C2
:100B50007509860997090E94921C2B8D388D498D45
:100B60005A8D0E94861D60932107709322078093FF
:100B700023079093240782E090E00E94940C06C023
:100B800060E672E0CE010D960E94650F89899A8910
:100B9000892B49F06D857E8580911207909113070E
:100BA0000E94A710ACC025E030E049E252E060E7C7
:100BB00072E08EE297E00E94AD0B892B09F099C09C
:100BC00064EF71E080E090E00E94620A6CE772E0FE
:100BD000CE0101960E94AD0F62E177E0CE01019651
:100BE0000E94310F6CE372E00E94180FFC016081DB
:100BF000718125E030E046E852E08EE297E00E9405
:100C0000AD0B7C01CE0101960E947C0FEF2809F00C
:100C10006DC068EE73E080E090E00E94620A68E8D0
:100C200072E080E397E00E94C90260910201605D7A
:100C300080E397E00E94E00861E972E080E397E0DA
:100C40000E94C90260910001605D80E397E00E940C
:100C5000E0086BE972E080E397E00E94C9024091EE
:100C600005015091060160E070E02AE080E397E022
:100C70000E94C20F6091040180E397E00E94A010DF
:100C800064EA72E080E397E00E94C90284EFE82EF4
:100C900086E0F82ED70114968D919C911597892B9B
:100CA00059F06D917C9180E397E00E94C9026AE05F
:100CB00080E397E00E94E008B6E0EB0EF11CE2E171
:100CC000EE16E7E0FE0631F764EF71E080E090E0B9
:100CD0000E94620A6AE180E397E00E94A0106DE33F
:100CE00072E080E397E00E94C90209C06FEA72E0F7
:100CF00002C06AEB72E08BE096E00E940B1040E1CC
:100D000057E265EC72E08EE297E00E94400BCE0164
:100D10000D960E947C0FF8011192E215F305E1F7A0
:100D2000FB89FF2351F025E030E049E252E06CEC12
:100D300072E08EE297E00E94AD0B2FEFC21AD20A4A
:100D400070CC0115110539F1C8016B960FB6F894F6
:100D5000DEBF0FBECDBFDF91CF911F910F91FF90EE
:100D6000EF90DF90CF90BF90AF909F908F907F904B
:100D70006F905F904F903F902F900C9437196AEDD1
:100D800072E0CE010D960E94650FDBCD61EF72E03F
:100D9000CE010D96F9CD6B960FB6F894DEBF0FBE5F
:100DA000CDBFDF91CF911F910F91FF90EF90DF901A
:100DB000CF90BF90AF909F908F907F906F905F90FB
:100DC0004F903F902F9008958F929F92AF92BF9235
:100DD000CF92DF92EF92FF920F931F93CF93DF9307
:100DE000CDB7DEB7A0970FB6F894DEBF0FBECDBF6C
:100DF0000E94C10260E570E080E090E00E94620A1B
:100E000061E08FE00E94F60960E080E10E94F6094F
:100E10002FE030E040E053E065E073E08EE297E0E1
:100E20000E94AD0B892B09F075C02FE030E040E047
:100E300053E06AE073E08EE297E00E94AD0B892BED
:100E400009F068C0FE013196CE0181966F011192C2
:100E5000E817F907E1F783E0E82EF12C66E173E08B
:100E600080E397E00E94C9020E949C0A4B015C014A
:100E700000E010E080E397E00E943409892BE1F064
:100E800080E397E00E944C098D3011F08A3009F41C
:100E900084E298012F5F3F4FF601E00FF11F80833E
:100EA000203231053CF064EF71E080E090E00E9478
:100EB000620A13C08901DECF00321105A4F70E9437
:100EC0009C0ADC01CB0188199909AA09BB09893858
:100ED0009341A105B10570F2E6CF80E397E00E944F
:100EE0003409892B29F080E397E00E944C09F5CF63
:100EF00061E273E0C6010E945820892B59F46CE22C
:100F000071E080E090E00E94620A81E0E81AF10856
:100F100009F0A4CFA0960FB6F894DEBF0FBECDBFE8
:100F2000DF91CF911F910F91FF90EF90DF90CF90C5
:100F3000BF90AF909F908F900895FC01538D448D8A
:100F4000252F30E0842F90E0821B930B541710F074
:100F5000CF96089501970895FC01918D828D981781
:100F600061F0828DDF01A80FB11D5D968C91928D8D
:100F70009F5F9F73928F90E008958FEF9FEF08958A
:100F8000FC01918D828D981731F0828DE80FF11D53
:100F9000858D90E008958FEF9FEF0895FC01918D6E
:100FA000228D892F90E0805C9F4F821B91098F7367
:100FB000992708958BE096E00E94CE0721E0892BC7
:100FC00009F420E0822F0895FC01848DDF01A80F31
:100FD000B11DA35ABF4F2C91848D90E001968F7361
:100FE0009927848FA689B7892C93A089B1898C9180
:100FF00080648C93938D848D981306C00288F38946
:10100000E02D80818F7D80830895EF92FF920F9372
:101010001F93CF93DF93EC0181E0888F9B8D8C8DA4
:10102000981305C0E889F989808185FD24C0F62ED2
:101030000B8D10E00F5F1F4F0F731127E02E8C8D6B
:10104000E8120CC00FB607FCFACFE889F989808155
:1010500085FFF5CFCE010E94E407F1CF8B8DFE0115
:10106000E80FF11DE35AFF4FF0820B8FEA89FB89ED
:101070008081806207C0EE89FF896083E889F989F1
:1010800080818064808381E090E0DF91CF911F9127
:101090000F91FF90EF900895CF93DF93EC01888D2F
:1010A0008823C9F0EA89FB89808185FD05C0A8896C
:1010B000B9898C9186FD0FC00FB607FCF5CF8081F2
:1010C00085FFF2CFA889B9898C9185FFEDCFCE013C
:1010D0000E94E407E7CFDF91CF91089580E090E090
:1010E000892B29F00E94DA0781110C9400000895E1
:1010F000833081F028F4813099F08230A1F0089596
:101100008730A9F08830B9F08430D1F48091800024
:101110008F7D03C0809180008F7780938000089539
:1011200084B58F7702C084B58F7D84BD089580918A
:10113000B0008F7703C08091B0008F7D8093B000A6
:1011400008953FB7F8948091070690910806A09102
:101150000906B0910A0626B5A89B05C02F3F19F0D5
:101160000196A11DB11D3FBFBA2FA92F982F882727
:10117000820F911DA11DB11DBC01CD0142E0660F82
:10118000771F881F991F4A95D1F7089508952091D8
:10119000F2063091F3062817390771F49091F006A2
:1011A0008091F106981741F0E091F006F0E0EE53DF
:1011B000FA4F808190E008958FEF9FEF0895089592
:1011C0001F93CF93DF93DC015C962D913C915D974B
:1011D0002115310539F481E090E013969C938E93AC
:1011E00012973DC05196ED91FC91529750969C916B
:1011F0005097892F80951FB75E964C915E9741FB63
:10120000772770F941FD6095F8944081772311F0BC
:10121000492B01C048234083E9012197F1F748E0B9
:10122000508160FF02C0592B01C058235083E9014F
:101230002197F1F76695415099F7772321F0908136
:101240008923808303C08081982B90831FBF5C9685
:101250008D919C915D970197F1F721E030E0C901F4
:10126000DF91CF911F9108952091F2063091F306FE
:101270002817390771F48091F1062091F00690E06B
:10128000805C9F4F821B910960E470E00E94291EE0
:10129000089580E090E008952091F2063091F306E1
:1012A00028173907B9F49091F0068091F106981744
:1012B00089F0E091F006F0E0EE53FA4F8081209142
:1012C000F00630E02F5F3F4F2F7333272093F00657
:1012D00090E008958FEF9FEF0895089580E090E0EB
:1012E00008950E942C200C9437191F920F920FB66C
:1012F0000F9211242F933F934F935F936F937F939C
:101300008F939F93AF93BF93EF93FF938BE096E000
:101310000E94E407FF91EF91BF91AF919F918F9150
:101320007F916F915F914F913F912F910F900FBEE1
:101330000F901F9018951F920F920FB60F921124C5
:101340002F938F939F93EF93FF93E0911B06F09160
:101350001C068081E0912106F091220682FD12C0D8
:101360009081809124068F5F8F73209125068217CC
:1013700051F0E0912406F0E0E55FF94F958F8093FE
:10138000240601C08081FF91EF919F918F912F9151
:101390000F900FBE0F901F901895CF93DF93282FBB
:1013A00030E0F901E459FD4F8491F901E855FD4F12
:1013B000D491F901EC56FD4FC491CC2391F08111E9
:1013C0000E947808EC2FF0E0EE0FFF1FE657FD4F6C
:1013D000A591B491EC91ED2381E090E021F480E0BF
:1013E00002C080E090E0DF91CF9108951F93CF93EA
:1013F000DF93282F30E0F901E459FD4F8491F90182
:10140000E855FD4FD491F901EC56FD4FC491CC2322
:10141000C9F0162F81110E947808EC2FF0E0EE0F32
:10142000FF1FE058FD4FA591B4918FB7F8941111AB
:1014300005C09C91ED2FE095E92302C0EC91ED2BC6
:10144000EC938FBFDF91CF911F910895CF93DF93DE
:1014500090E0FC01E855FD4F2491FC01EC56FD4F56
:101460008491882361F190E0880F991FFC01EE5967
:10147000FD4FC591D491FC01E058FD4FA591B49169
:10148000611109C09FB7F8948881209582238883D1
:10149000EC912E230BC0623061F49FB7F894388131
:1014A000822F809583238883EC912E2B2C939FBFD2
:1014B00006C08FB7F894E8812E2B28838FBFDF9169
:1014C000CF9108958F929F92AF92BF92CF92DF9269
:1014D000EF92FF926B017C010E94A1084B015C011D
:1014E000C114D104E104F104F1F00E94A108DC016F
:1014F000CB0188199909AA09BB09883E9340A10527
:10150000B10570F321E0C21AD108E108F10888EEB4
:10151000880E83E0981EA11CB11CC114D104E10403
:10152000F10419F7DDCFFF90EF90DF90CF90BF90DF
:10153000AF909F908F9008952FB7F8946091030615
:101540007091040680910506909106062FBF0895BC
:101550001F920F920FB60F9211242F933F938F93E8
:101560009F93AF93BF938091030690910406A0913F
:101570000506B09106063091020623E0230F2D37B1
:1015800020F40196A11DB11D05C026E8230F029687
:10159000A11DB11D209302068093030690930406BB
:1015A000A0930506B0930606809107069091080661
:1015B000A0910906B0910A060196A11DB11D809364
:1015C000070690930806A0930906B0930A06BF91F8
:1015D000AF919F918F913F912F910F900FBE0F90E0
:1015E0001F9018951F920F920FB60F9211242F93F0
:1015F0003F934F935F936F937F938F939F93AF939B
:10160000BF93EF93FF93E0910901F0910A010995CF
:10161000FF91EF91BF91AF919F918F917F916F91CA
:101620005F914F913F912F910F900FBE0F901F90A0
:1016300018951F920F920FB60F9211242F933F937C
:101640004F935F936F937F938F939F93AF93BF93CA
:10165000EF93FF93E0910701F09108010995FF9145
:10166000EF91BF91AF919F918F917F916F915F911A
:101670004F913F912F910F900FBE0F901F90189593
:101680004F925F926F927F928F929F92AF92BF9292
:10169000CF92DF92EF92FF920F931F93CF93DF933E
:1016A0008C017B01EA01FB0101900020E9F73197F1
:1016B0006F01C61AD70A0E949C0A2B013C0188EED2
:1016C00093E0C89F4001C99F900CD89F900C1124B3
:1016D000A12CB12CC0E0D0E00E5F1F4FC8010E94CA
:1016E0003409892B81F0C8010E944C09F701EC0FE5
:1016F000FD1F9081981302C0219602C0C0E0D0E087
:10170000CC15DD0581F00E949C0ADC01CB01841917
:101710009509A609B70988169906AA06BB06F0F628
:101720008FEF9FEF09C0C8010E943409009721F094
:10173000C8010E944C09F7CFDF91CF911F910F9103
:10174000FF90EF90DF90CF90BF90AF909F908F90E1
:101750007F906F905F904F900895EF92FF920F935C
:101760001F93CF93DF93EC018A01790102960E94C7
:10177000C902A701B801CE01DF91CF911F910F914E
:10178000FF90EF900C94400BDF92EF92FF920F933B
:101790001F93CF93DF93EC018B810E94CD09892B9E
:1017A000D9F76A818B810E94520E082F6A818B8142
:1017B0000E94520E182F6A818B810E94520ED82EE1
:1017C000E12CF12C2C8130E0E216F30660F461E0AC
:1017D0008A810E94F60960E08A810E94F6092FEF53
:1017E000E21AF20AEFCF812F90E0A0E0B0E0BA2F2A
:1017F000A92F982F8827A02BAC01BD014D29802F40
:10180000880F880B90E0A0E0B0E0B82FAA279927B6
:1018100088278A019B01082B192B2A2B3B2BC901F6
:10182000B801DF91CF911F910F91FF90EF90DF9062
:10183000089508951F920F920FB60F9211242F93BF
:101840003F934F935F936F937F938F939F93AF9348
:10185000BF93EF93FF93E091F206F091F306309778
:1018600009F451C0968DA685B785858591FF04C082
:101870009C91892329F447C09C91892309F043C096
:10188000A389B4899C918589809589238C938689C5
:1018900097890197F1F7608D718DA685B78555857C
:1018A00038E020E0CB010197F1F7822F90E0959589
:1018B0008795282F4C91452309F02068315091F7E6
:1018C000868D81FD20958091F10690E001968F73C1
:1018D00099273091F006381749F0A091F106B0E051
:1018E000AE53BA4F2C938093F10603C0868D81606E
:1018F000868F828D938D0197F1F7A389B4899C918E
:101900008589892B8C93FF91EF91BF91AF919F9126
:101910008F917F916F915F914F913F912F910F9098
:101920000FBE0F901F901895CF93DF93BC01769553
:1019300067957695679521E062276170C5E2D7E0EB
:101940006E839C013695279541E0242721702F83D3
:101950008170992721E082278170888788810E9481
:10196000F6096F818A810E94F60968858C81DF9172
:10197000CF910C94F609EF92FF920F931F93CF93A0
:10198000DF937C018B01C0E0D0E0F8012081318140
:10199000C217D307B8F480E090E00E94940C62E490
:1019A00070E080E090E00E94620AF70180819181FE
:1019B0000E94940C62E470E080E090E00E94620A71
:1019C0002196E3CFDF91CF911F910F91FF90EF9080
:1019D00008958F929F92AF92BF92CF92DF92EF9233
:1019E000FF926B017C010E949C0A4B015C01C60EB8
:1019F000D71EE81EF91E0E949C0A681579058A0503
:101A00009B0528F0C616D706E806F906A0F7FF9052
:101A1000EF90DF90CF90BF90AF909F908F90089500
:101A200080916707E0916807F0916907F8949181C8
:101A3000982B91832281982F909529232283A7E0C8
:101A4000B0E01197F1F7218192239183A3E2B0E0F6
:101A50001197F1F790817894EFECF0E03197F1F77E
:101A6000982381E009F480E0089590916707E09160
:101A70006807F0916907392F309580FF13C0F894FB
:101A80002281832F822382838181892B8183A3E218
:101A9000B0E01197F1F78281982B9283789487EDCB
:101AA00090E012C0F8942281832F82238283818167
:101AB000892B8183AFEFB0E01197F1F78281982BEA
:101AC000928378948FE090E00197F1F70895EF9278
:101AD000FF920F931F93CF93DF931F92CDB7DEB783
:101AE000082F88E0E82EF12C11E081E0912F90235F
:101AF00009F480E069830E94350D110F81E0E81A36
:101B0000F1086981E114F10481F7611113C0F894BF
:101B1000E0916807F091690791818091670780954E
:101B200098239183E0916807F09169079281892356
:101B3000828378940F90DF91CF911F910F91FF9046
:101B4000EF900895EF92FF920F931F93CF93DF933F
:101B50001F92CDB7DEB7182F60E085E599830E940C
:101B6000670DE12E9981F92E8701085F1F4F60E014
:101B7000F70181917F010E94670DE016F106B9F728
:101B80000F90DF91CF911F910F91FF90EF900895EB
:101B900090916707E0916807F0916907F894818157
:101BA000292F20958223818378948DE743E050E0AC
:101BB000815021F1DA011197F1F730813923C1F316
:101BC000F8948281822382838181892B8183789416
:101BD000ABE7B7E01197F1F7F894818128232183CF
:101BE000A3E1B1E01197F1F78081982381E009F03A
:101BF00080E07894E3E6F6E03197F1F708950895F0
:101C0000CF92DF92EF92FF920F931F93CF93DF93C8
:101C10006C017A018B01C0E0D0E0CE15DF0589F0C0
:101C2000D8016D918D01D601ED91FC910190F0816B
:101C3000E02DC6010995892B11F47E0102C0219681
:101C4000ECCFC701DF91CF911F910F91FF90EF90E3
:101C5000DF90CF9008950F931F93CF93DF93EC0104
:101C600088819981009729F02A813B8126173707BF
:101C700088F48B016F5F7F4F0E94621F009761F0B5
:101C8000998388831B830A832C813D81232B11F444
:101C9000FC01108281E001C080E0DF91CF911F91B3
:101CA0000F910895FF920F931F93CF93DF93F82E18
:101CB000062FC7E0D0E010E061E0802F0E94F60917
:101CC0008F2D0E94CD090C2E01C0880F0A94EAF7CF
:101CD000182B60E0802F0E94F609219768F7812F6A
:101CE000DF91CF911F910F91FF900895CF92DF92D6
:101CF000EF92FF92CF93DF93C82FD0E0C12CD12C6D
:101D00007601DC1751F088E197E00E94C40BC60E03
:101D1000D71EE81EF91EDF5FF4CF2D2F30E040E024
:101D200050E0C701B6010E943D1ECA01B901DF9112
:101D3000CF91FF90EF90DF90CF9008950F931F9376
:101D40000E949C0A609338077093390780933A0782
:101D500090933B07E0913007F09131070284F385BF
:101D6000E02D80E397E0099597FF1FC00E949C0A31
:101D7000009138071091390720913A0730913B07BD
:101D8000DC01CB01801B910BA20BB30B009134073C
:101D9000109135072091360730913707801791074A
:101DA000A207B307B8F28FEF9FEF1F910F9108952D
:101DB000EF92FF920F931F93CF93DF93FC01248147
:101DC00035816115710511F480E019C04115510587
:101DD000A9F07B01EC018A01020F131FB8010E94D8
:101DE0002B0E882389F3288139818C819D81B7014D
:101DF000820F931F0E9443201D830C8381E0DF919B
:101E0000CF911F910F91FF90EF900895CF93DF93A3
:101E1000EC0188819981009711F00E94371919828D
:101E200018821D821C821B821A82DF91CF91089535
:101E3000CF93DF93EC016115710561F0FB01019017
:101E40000020E9F73197AF01461B570B0E94D80ECF
:101E5000811103C0CE010E94060FCE01DF91CF9108
:101E60000895CF93DF93EC01FB014481558160819C
:101E700071810E94D80E811103C0CE010E94060F0D
:101E8000CE01DF91CF910895EF92FF920F931F93B0
:101E9000CF93DF93EC017B018A01BA010E942B0EE4
:101EA000811104C0CE010E94060F07C01D830C8360
:101EB000B701888199810E944320CE01DF91CF91A3
:101EC0001F910F91FF90EF900895CF93DF93EC0156
:101ED0006115710559F0FB0101900020E9F7319778
:101EE000AF01461B570B0E94440F02C00E94060F11
:101EF000CE01DF91CF910895FC01808191810C94F6
:101F000037190F931F93CF93DF93CDB7DEB7619748
:101F10000FB6F894DEBF0FBECDBF8C01CB01F80128
:101F200011821082138212821582148250E0BE0147
:101F30006F5F7F4F0E94F519BE016F5F7F4FC80131
:101F40000E94650F61960FB6F894DEBF0FBECDBF3D
:101F5000DF91CF911F910F910895FC0111821082A2
:101F600013821282158214826115710551F0FB01F2
:101F700001900020E9F73197AF01461B570B0C94F5
:101F8000440F08954F925F926F927F92EF92FF926B
:101F90000F931F93CF93DF93CDB7DEB7A1970FB603
:101FA000F894DEBF0FBECDBF7C01FA01CB0119A2B0
:101FB000223008F42AE08E010F5D1F4F422E512C73
:101FC000612C712CBF01A30192010E941E1DF90119
:101FD000CA01015011096A3014F4605D01C0695CE6
:101FE000D8016C93232B242B252B61F7B801C70153
:101FF0000E94C902A1960FB6F894DEBF0FBECDBFF6
:10200000DF91CF911F910F91FF90EF907F906F9094
:102010005F904F9008950F931F93CF93DF93EC0140
:102020000E94C9028C016DE372E0CE010E94C902D8
:10203000800F911FDF91CF911F910F9108958F9283
:102040009F92AF92BF92CF92DF92EF92FF920F9347
:102050001F93CF93DF93CDB7DEB768970FB6F89491
:10206000DEBF0FBECDBF04EF16E0E12CF12C87E8F8
:10207000C82E85E0D82ECE0101965C01F80184813E
:102080009581892B09F441C09080818025E030E062
:1020900049E252E066E775E08EE297E00E94AD0B00
:1020A000892B39F062E875E08BE096E00E940B1016
:1020B00019C068EE73E080E090E00E94620A8F929F
:1020C0009F92DF92CF92BF92AF920E94A220B50161
:1020D00080E397E00E94C9020F900F900F900F903D
:1020E0000F900F9040E757E162E975E08EE297E0CC
:1020F0000E94400B892B19F4FFEFEF1AFF0A67E9E2
:1021000075E080E397E00E94C9020A5F1F4F87E0F5
:102110000231180709F0B2CFC70168960FB6F894DC
:10212000DEBF0FBECDBFDF91CF911F910F91FF900A
:10213000EF90DF90CF90BF90AF909F908F900895D9
:10214000DC01ED91FC910190F081E02D0994EF927A
:10215000FF920F931F93CF93DF93CDB7DEB7A09776
:102160000FB6F894DEBF0FBECDBF182F092F7B012D
:1021700025E030E049E252E060E772E08EE297E06D
:102180000E94AD0B892B19F06AEB72E029C064EF55
:1021900071E080E090E00E94620A0F931F938DE946
:1021A00095E09F938F931F9280E28F938E010F5F34
:1021B0001F4F1F930F930E94722025E030E046E8E6
:1021C00052E0B8018EE297E00E94AD0B8C010FB691
:1021D000F894DEBF0FBECDBF892B49F06FEA72E0E5
:1021E0008BE096E00E940B100FEF1FEF1CC068EE13
:1021F00073E080E090E00E94620AB70180E397E01C
:102200000E94C90264EF71E080E090E00E94620ADF
:102210006AE180E397E00E94A0106DE372E080E342
:1022200097E00E94C902C801A0960FB6F894DEBFDD
:102230000FBECDBFDF91CF911F910F91FF90EF9017
:1022400008950C94C902CF93DF93C2E1D7E026979B
:10225000CE010E947C0F86E0C43FD807C1F782E11F
:1022600097E00E947C0F80E391E090933107809388
:1022700030078091F2069091F3068053974071F4F5
:10228000E0914307F0914407908180914507809544
:10229000892380831092F3061092F206DF91CF918A
:1022A0000895CF93DF93CDB7DEB7E1970FB6F894DB
:1022B000DEBF0FBECDBF789484B5826084BD84B587
:1022C000816084BD85B5826085BD85B5816085BD31
:1022D00080916E00816080936E00109281008091E9
:1022E0008100826080938100809181008160809371
:1022F0008100809180008160809380008091B10096
:1023000084608093B1008091B00081608093B000C0
:1023100080917A00846080937A0080917A00826054
:1023200080937A0080917A00816080937A00809116
:102330007A00806880937A001092C1001092EC06B7
:102340001092ED061092EE061092EF061092AA0679
:102350001092AB061092AC061092AD0668EB7BE0D3
:1023600080E090E00E94E90C8BE096E09093EB0611
:102370008093EA06E0911B06F0911C0602E00083C0
:10238000E0911706F09118061082E0911906F0917D
:102390001A0680E1808310922306E0911F06F091D7
:1023A000200616E01083E0911D06F0911E06808144
:1023B00080618083E0911D06F0911E068081886017
:1023C0008083E0911D06F0911E06808180688083E5
:1023D000E0911D06F0911E0680818F7D80830E9412
:1023E0009C0A6093AA067093AB068093AC06909308
:1023F000AD066EE273E08091EA069091EB060E94D2
:1024000021116AE070E080E090E00E94E90C81E038
:102410008093BE0681E090E00E94940CE0911B0640
:10242000F0911C060083E0911706F09118061082C7
:10243000E0911906F0911A068FEC80831092230622
:10244000E0911F06F09120061083E0911D06F091A7
:102450001E06808180618083E0911D06F0911E063A
:10246000808188608083E0911D06F0911E06808146
:1024700080688083E0911D06F0911E0680818F7D2B
:10248000808360E473E08BE096E00E940B1061E0D3
:1024900080E10E94260A61E08FE00E94260A61E046
:1024A00085E00E94260A62E083E00E94260A62E03C
:1024B00084E00E94260A0E94E40682E090E00E94E6
:1024C000940C64E670E080E090E00E94620A67E4A9
:1024D00073E08BE096E00E940B1084EA91E0909309
:1024E0000A018093090180916900837F886080934D
:1024F0006900E99A10928000109281008CED9BE0B7
:102500009093850080938400809181008460809303
:10251000810080916F00816080936F007894CE017C
:1025200001967C01FC01E957F7406F0124EF422E30
:1025300055245394612C712C08969FA78EA737E0E1
:10254000832E8E0C88AA0E949C0A0091BE051091D1
:10255000BF052091C0053091C105DC01CB01801B76
:10256000910BA20BB30B86399105A105B10508F4B7
:1025700092C00E949C0A6093BE057093BF05809331
:10258000C0059093C10561E070E080E090E00E949A
:10259000E90C0E949C0A6093AA067093AB06809394
:1025A000AC069093AD0666E673E08091EA069091E2
:1025B000EB060E9421116DE673E08091EA0690918E
:1025C000EB060E9421116DE673E08091EA0690917E
:1025D000EB060E9421116DE673E08091EA0690916E
:1025E000EB060E9421118091750790917607009764
:1025F00019F4DA82C9821AC0A701481B590BE0916D
:102600007707F091780780E090E0309759F09C01CF
:102610002E5F3F4F80819181820F931F0280F38153
:10262000E02DF3CF840F951F9A83898349815A81C6
:102630000091EA061091EB064A01550FAA08BB0863
:10264000B7FE0DC06DE2C8010E94A01044275527B7
:10265000BA01481959096A097B092AE003C02AE02E
:10266000B501A401C8010E94C20F6DE673E080911C
:10267000EA069091EB060E9421116FE673E08091CB
:10268000EA069091EB060E94211161E070E080E083
:1026900090E00E94E90C0E949C0A672B682B692B32
:1026A00041F40E949C0A623071058105910508F48D
:1026B00004C10E949C0A6093BA057093BB05809385
:1026C000BC059093BD050091B6051091B70520910A
:1026D000B8053091B905601771078207930740F478
:1026E0006093B6057093B7058093B8059093B905CC
:1026F0000091B6051091B7052091B8053091B90544
:102700004B015C01801A910AA20AB30A9501840167
:102710000A3F11052105310508F4CFC06093B605C5
:102720007093B7058093B8059093B9054092B606AB
:102730005092B7066092B8067092B9061092BA0627
:102740001092BB061092BC061092BD068091AE0698
:102750009091AF06A091B006B091B1068093B206F9
:102760009093B306A093B406B093B5060E949C0A5A
:102770006093AE067093AF068093B0069093B10657
:102780000E949C0A6093AA067093AB068093AC06E5
:102790009093AD060E949C0A4B015C0168E773E0D0
:1027A0008091EA069091EB060E9421112AE041E017
:1027B00050E060E070E08091EA069091EB060E94A4
:1027C000C20F6FE773E08091EA069091EB060E94DA
:1027D00021112AE0B501A4018091EA069091EB064F
:1027E0000E94C20F61E873E08091EA069091EB06C7
:1027F0000E9421118091AE069091AF06A091B00683
:10280000B091B106B501A401481B590B6A0B7B0BB3
:102810002AE08091EA069091EB060E94C20F61E8DF
:1028200073E08091EA069091EB060E94211140919D
:10283000AE065091AF066091B0067091B1068091DE
:10284000B2069091B306A091B406B091B506481BAC
:10285000590B6A0B7B0B2AE08091EA069091EB06FC
:102860000E94C20F6DE673E08091EA069091EB063C
:102870000E9421110E949C0AAB01BC012AE08091B8
:10288000EA069091EB060E94C20F63E873E0809124
:10289000EA069091EB060E940B1065E070E080E084
:1028A00090E00E94E90C0E949C0A6093AE0670932F
:1028B000AF068093B0069093B1068091B50588234A
:1028C000D9F16AE873E08BE096E00E940B100E9459
:1028D000E40663EA73E08BE096E00E940B1063EA83
:1028E00073E0C7010E94AD0F04EF16E0F801848188
:1028F0009581892B31F069817A81808191810E9453
:10290000A7100A5F1F4FF7E002311F0779F7C701D1
:102910000E947C0F0E941F100E941F10892B39F407
:102920006AEA73E08BE096E00E940B10F5CF1092FC
:10293000B50581E080930B0180910B01882341F064
:1029400081E090E09A838983C7010E94DE0272C011
:102950008091B405882309F465C00E94E40669EB00
:1029600073E08BE096E00E940B1080917407811158
:10297000AAC10E94C80D882309F4A5C160E080EFB8
:102980000E94670D01E0812C312C11E00E94100D96
:1029900089AB0E94100D99A9913019F48130C9F4C6
:1029A00036C0E82DF0E098131EC08091720718170A
:1029B00040F4DF01A959B84F13968C91802349F454
:1029C00002C0181731F090E0193060F410937307CB
:1029D00009C0E82DF0E0E959F84F8381802B83830B
:1029E00091E008C0312EE959F84F2381802F80955E
:1029F00082238383892F0E94350D1F5F000F11F4FE
:102A0000839401E097E0992E981408F0BFCF113419
:102A100008F459C13092720731100FC081E08093E1
:102A200074070BC06DE475E08BE096E00E940B101C
:102A30000E94C1020E946E0886CD80916A07882399
:102A400009F441C1AAE6B7E0F7018D918193AEA4E4
:102A5000BFA4EA15FB05C9F7D701E0E088A88A16EC
:102A600039F08D91E827F0E0EE59FE4FE491F6CF72
:102A70008885E8132BC08981823221F0883211F0D9
:102A8000803121F50E94C80DC7010E94A20D61E0AE
:102A900084E40E94670D68EE73E080E090E00E949D
:102AA000620A0E94C80DC7010E94A20D60E08EEB71
:102AB0000E94670D19E088E0282E312C0E94100D2D
:102AC00081E0281A3108D1F71150A9F784E10E945A
:102AD000760E19A618A61BA61AA61DA61CA6870167
:102AE00022E044E060E070E080EA92E40E94821814
:102AF000BC01CE0188960E94650F1BA21AA21DA2DE
:102B00001CA21FA21EA222E044E060E070E088EB5D
:102B100091E40E948218BC01CE0182960E94650F4A
:102B200062ED73E0C7010E94AD0FBE016E5D7F4F85
:102B3000C7010E94310F61EE73E00E94180FBE01C1
:102B4000685D7F4F0E94310FFC016081718180912F
:102B50001207909113070E94A710C7010E947C0FD3
:102B6000CE0182960E947C0FCE0188960E947C0F37
:102B700024E630E049E252E06CEE73E08EE297E04A
:102B80000E94AD0B24E630E049E252E068E074E0D8
:102B90008EE297E00E94AD0B24E630E049E252E07D
:102BA00060E374E08EE297E00E94AD0B24E630E033
:102BB00049E252E06FE374E08EE297E00E94AD0BD1
:102BC00024E630E049E252E06DE474E08EE297E002
:102BD0000E94AD0B24E630E049E252E061E674E089
:102BE0008EE297E00E94AD0B24E630E049E252E02D
:102BF0006DE974E08EE297E00E94AD0B24E630E0D0
:102C000045ED54E06EED74E08EE297E00E94AD0B6E
:102C10004AE067E170E0C7010E94810F4AE060E589
:102C200070E0CE0182960E94810F66EF74E0CE01C3
:102C300088960E94AD0FBE016E5D7F4FCE018896D3
:102C40000E94310F66E075E00E94180FB7010E94E4
:102C5000310F6DE372E00E94180FFC0160817181F9
:102C600020E137E249E252E08EE297E00E94AD0BAC
:102C7000CE0188960E947C0FCE0182960E947C0F26
:102C8000C7010E947C0F28E833E144E155E061E28E
:102C900075E08EE297E00E94AD0B63E375E080E3A0
:102CA00097E00E94C90285E090E09A838983C7017A
:102CB0000E94DE0261E475E08BE096E00E940B105A
:102CC0001092B405B5CE109272071092740710924C
:102CD0007307E2E7F7E0129287E0EA36F807D9F7E0
:102CE0006AEF70E080E090E00E94620AEFCECF933E
:102CF000DF9310920E0610920D0688EE93E0A0E08E
:102D0000B0E080930F0690931006A0931106B09345
:102D1000120686E191E090930C0680930B0685ECF9
:102D200090E0909318068093170684EC90E09093BF
:102D30001A068093190680EC90E090931C0680930D
:102D40001B0681EC90E090931E0680931D0682EC9A
:102D500090E09093200680931F0686EC90E090937D
:102D600022068093210610922406109225061092C6
:102D70002606109227061092AE061092AF06109209
:102D8000B0061092B1061092B2061092B3061092DD
:102D9000B4061092B5061092B6061092B7061092BD
:102DA000B8061092B9061092BA061092BB0610929D
:102DB000BC061092BD0660E084E00E94260AECEAA0
:102DC000F2E0E491E0936707E8E9F2E0E491F0E0F3
:102DD000EE0FFF1FE657FD4F859194919093690781
:102DE000809368071092720710927407109273070D
:102DF000E2E7F7E0129287E0EA36F807D9F7109297
:102E000033071092320788EE93E0A0E0B0E08093A1
:102E1000340790933507A0933607B093370780E3C4
:102E200091E09093310780933007109247071092FA
:102E30004607109249071092480710924B071092CC
:102E40004A0710924D0710924C0760914E076E7F13
:102E50006D7F60934E076695617081E068278AE018
:102E60000E94F60961E08AE00E94260AE2EBF2E0A5
:102E7000E491E0934007EEE9F2E0E491F0E0EE0F38
:102E8000FF1FE058FD4F85919491909342078093E6
:102E9000410760E089E00E94260A80914E0781FD8B
:102EA00004C061E089E00E94F60989E080933C0754
:102EB000E1EBF2E0E491E0933D07EDE9F2E0E4912B
:102EC000F0E0EE0FFF1FE657FD4F85919491909330
:102ED0003F0780933E0782E390E090932F07809313
:102EE0002E0761E00E94260A10924B0710924A07B3
:102EF0001092490710924807109247071092460710
:102F00008DE991E090934D0780934C0790913C0799
:102F1000963108F057C02DEB30E0309347072093EF
:102F200046072BE931E030934907209348072CE20C
:102F300031E030934B0720934A0720916800983086
:102F400050F031E09E3008F430E081E001C0880F9D
:102F50003A95EAF701C084E0822B809368009830AC
:102F600038F09E3040F0963148F020E030E008C064
:102F70002DE630E005C02BE630E002C02CE630E064
:102F80003093440720934307983030F481E001C028
:102F9000880F9A95EAF70EC0292F30E09E3018F47A
:102FA0002850310902C02E50310981E001C0880F3C
:102FB0002A95EAF78093450780914C0790914D0739
:102FC0000197F1F780914A0790914B07892B49F1BE
:102FD000E091F206F091F30687E0E033F80709F19B
:102FE000309739F0A389B4899C918589809589238C
:102FF0008C9380914E078E7F80934E071092F1063E
:103000001092F00680E397E09093F3068093F20627
:10301000E0914307F0914407908180914507892B07
:10302000808386E090E0909326078093250787E0D1
:1030300090E0909328078093270788E090E0909392
:103040002A078093290761E086E00E94260A61E052
:10305000809127070E94260A61E0809129070E943B
:10306000260A88E291E0909319078093180710923E
:103070001D0710921E0710921F071092200780E074
:1030800090E0A0E8BFE38093210790932207A093EC
:103090002307B093240783E180931A0782E180938A
:1030A0001B0761E083E10E94260A60E080911B0714
:1030B0000E94260A81E080931C0760E080911A0735
:1030C0000E94F60988E197E00E94C40B68E675E06B
:1030D00082E197E00E94AD0F68E675E084EF96E02C
:1030E0000E94AD0FC0E0D0E026966FE372E0CE0103
:1030F0008C50994F0E94AD0FC831D105A9F7DF91CF
:10310000CF910895EF920F931F93CF93DF93E80130
:1031100047FD02C034E001C034E1E42F440FFF0B4F
:10312000F7FF03C0F195E195F109E32E022F2E2F51
:10313000AE010E941A1ACE01DF91CF911F910F911B
:10314000EF900895CF93DF938230910510F482E0E1
:1031500090E0E0917707F091780720E030E0C0E060
:10316000D0E0309711F14081518148175907C0F0E4
:103170004817590761F482819381209719F09B8346
:103180008A832BC0909378078093770726C02115F8
:10319000310519F04217530718F49A01BE01DF01F7
:1031A000EF010280F381E02DDCCF2115310509F11B
:1031B000281B390B2430310590F412968D919C9187
:1031C00013976115710521F0FB019383828304C07D
:1031D0009093780780937707FD01329644C0FD01F4
:1031E000E20FF31F81939193225031092D933C9369
:1031F0003AC02091750730917607232B41F4209136
:103200000E0130910F0130937607209375072091BE
:103210000C0130910D012115310541F42DB73EB758
:103220004091100150911101241B350BE09175075D
:10323000F0917607E217F307A0F42E1B3F0B281737
:10324000390778F0AC014E5F5F4F2417350748F01F
:103250004E0F5F1F509376074093750781939193AC
:1032600002C0E0E0F0E0CF01DF91CF9108950F932D
:103270001F93CF93DF93009709F48CC0FC01329722
:1032800013821282009177071091780701151105BA
:1032900081F420813181820F931F20917507309135
:1032A00076072817390779F5F0937607E0937507C5
:1032B00071C0D80140E050E0AE17BF0750F412963D
:1032C0002D913C911397AD012115310509F1D901DB
:1032D000F3CF9D01DA013383228360817181860FF0
:1032E000971F8217930769F4EC0128813981260F13
:1032F000371F2E5F3F4F318320838A819B819383C9
:103300008283452B29F4F0937807E093770742C036
:103310001396FC93EE931297ED01499159919E01FA
:10332000240F351FE217F30771F480819181840F18
:10333000951F029611969C938E938281938113968A
:103340009C938E931297E0E0F0E0D80112968D9155
:103350009C911397009719F0F8018C01F6CF8D918D
:103360009C9198012E5F3F4F820F931F209175070C
:10337000309176072817390769F4309729F41092AD
:1033800078071092770702C0138212821093760793
:1033900000937507DF91CF911F910F910895FC0164
:1033A00088279927E89421912032E9F3293010F0F9
:1033B0002E30C8F32B3241F02D3239F4689404C01A
:1033C0000E94ED19820F911D219120532A30C0F3E4
:1033D0001EF4909581959F4F08957AE0979F902DC8
:1033E000879F802D910D112408954532510520F4B9
:1033F000423010F00C94001AFB011082CB010895AA
:10340000BB27FB015527AA27880F991FAA1FA417BE
:1034100010F0A41B83955051B9F7A05DAA3308F0B2
:10342000A95DA193009779F7B111B1931192CB01E6
:103430000C94801C4F925F926F927F929F92AF92FA
:10344000BF92CF92DF92EF92FF920F931F93CF9391
:10345000DF93CDB7DEB729970FB6F894DEBF0FBE66
:10346000CDBF6A01122FB02E2BE3201720F0FF24CE
:10347000F394F00E02C0BCE3FB2E0F2D27E0AE014B
:103480004F5F5F4F0E94A81BAC018981982F9970F4
:10349000913031F0E1FC06C0E0FE06C090E205C0CC
:1034A0009DE203C09BE201C090E0EE2DE07183FF3E
:1034B0003CC0911102C083E001C084E0811718F480
:1034C000212F281B01C020E0E1110BC0F601822F43
:1034D00030E2882319F031938150FBCFC20ED11C0A
:1034E00020E0992329F0D6019C93F60131966F01D3
:1034F000C6010396E2FE0AC03EE4D6013C9341E4D5
:1035000011964C93119712963C9306C03EE6F60135
:10351000308341E641833283FC01322F40E2332382
:1035200009F442C041933150FACF82FF44C0911157
:1035300002C083E001C084E0811718F4212F281B0A
:1035400001C020E0E1110BC0F601822F30E2882398
:1035500019F031938150FBCFC20ED11C20E099238A
:1035600029F0D6019C93F60131966F01C6010396AE
:10357000E2FE0BC039E4D6013C933EE411963C9345
:10358000119736E412963C9307C039E6F601308372
:103590003EE6318336E63283FC01322F40E23323AC
:1035A00019F041933150FBCFFC01E20FF11D108265
:1035B0008EEF9FEFB7C0F1E0911101C0F0E06F2FE7
:1035C00070E01416150624F49A012F5F3F4F02C0D5
:1035D00021E030E0260F371FBB2029F06B2D70E073
:1035E0006F5F7F4F02C060E070E0260F371F612FD2
:1035F00070E0261737071CF4121B212F01C020E0B2
:103600003E2D387159F4D601322F60E2332319F080
:103610006D933150FBCFC20ED11C20E0FF2331F05F
:10362000D6019C93B6016F5F7F4F6B01E1110BC018
:10363000F601922F30E3992319F031939150FBCF8B
:10364000C20ED11C20E09F2D940F3A81782F70710B
:10365000A72E84FF03C0313309F49150191624F4C6
:10366000993018F098E001C091E0E42F852F57FFC2
:1036700002C0E0E080E06E2F782FE0E0F0E0AEE204
:103680009A2E3A01691A71082A01461A570A0B2D17
:1036900010E01195019511096F3F8FEF780729F41C
:1036A000D6019C92C60101966C014617570784F01B
:1036B000661677066CF47F01E40CF51CA1E0B0E01F
:1036C000AC0FBD1FEA0EFB1ED7011196BC9002C0C5
:1036D00090E3B92E615071093196C60101967C01C3
:1036E0006017710724F0D601BC926C01D5CF641726
:1036F000750741F4363320F4353321F4A11002C0AC
:1037000081E3B82EF601B082F701822F90E2882380
:1037100019F091938150FBCFF701E20FF11D108258
:1037200080E090E029960FB6F894DEBF0FBECDBFC3
:10373000DF91CF911F910F91FF90EF90DF90CF908D
:10374000BF90AF909F907F906F905F904F90089543
:10375000283008F027E03327DA01990F311D87FD63
:10376000916000966105710539F432602E5F3D93DA
:1037700030E32A95E1F708959F3F30F080387105D6
:10378000610509F03C5F3C5F3D93913008F0806833
:10379000911DDF93CF931F930F93FF92EF92192FF9
:1037A000987F9695E92F96959695E90FFF27EE530A
:1037B000FF4F99273327EE24FF24A701E701059047
:1037C0000894079428F4360FE71EF81E491F511D70
:1037D000660F771F881F991F0694A1F7059007941D
:1037E00028F4E70EF81E491F561FC11D770F881FCA
:1037F000991F661F0694A1F70590079428F4F80E08
:10380000491F561FC71FD11D880F991F661F771F9D
:103810000694A1F70590079420F4490F561FC71F7F
:10382000D81F990F661F771F881F0694A9F78491E8
:103830001095177041F0D695C79557954795F79411
:10384000E7941A95C1F7E8E6F0E0689415901591B1
:1038500035916591959105907FE27395E118F10A94
:10386000430B560BC90BD009C0F7E10CF11E431FE7
:10387000561FC91FD01D7EF4703311F48A95E6CF10
:10388000E894015030F0080F0AF40027021708F4FA
:10389000202F2395022F7A3328F079E37D932A9500
:1038A000E9F710C07D932A9589F606949795679558
:1038B000379517951794E118F10A430B560BC90B6E
:1038C000D00998F023957E9173957A3308F070E3D0
:1038D0007C932013B8F77E9170617D9330F08395CF
:1038E00071E37D9370E32A95E1F71124EF90FF9047
:1038F0000F911F91CF91DF91992787FD90950895A2
:10390000DC01FC01672F71917723E1F7329704C046
:103910007C916D9370836291AE17BF07C8F30895D1
:10392000E89409C097FB3EF4909580957095619559
:103930007F4F8F4F9F4F9923A9F0F92F96E9BB270F
:103940009395F695879577956795B795F111F8CF8B
:10395000FAF4BB0F11F460FF1BC06F5F7F4F8F4FF6
:103960009F4F16C0882311F096E911C0772321F0EC
:103970009EE8872F762F05C0662371F096E8862F84
:1039800070E060E02AF09A95660F771F881FDAF7DB
:10399000880F9695879597F9089597F99F6780E81E
:1039A00070E060E008959FEF80EC089500240A9491
:1039B0001616170618060906089500240A9412160A
:1039C0001306140605060895092E0394000C11F43D
:1039D000882352F0BB0F40F4BF2B11F460FF04C0EA
:1039E0006F5F7F4F8F4F9F4F089557FD9058440F43
:1039F000551F59F05F3F71F04795880F97FB991F4E
:103A000061F09F3F79F0879508951216130614060A
:103A1000551FF2CF4695F1DF08C016161706180697
:103A2000991FF1CF86957105610508940895E89472
:103A3000BB2766277727CB0197F90895A1E21A2EB5
:103A4000AA1BBB1BFD010DC0AA1FBB1FEE1FFF1F42
:103A5000A217B307E407F50720F0A21BB30BE40B92
:103A6000F50B661F771F881F991F1A9469F76095D9
:103A70007095809590959B01AC01BD01CF01089593
:103A80002F923F924F925F926F927F928F929F926E
:103A9000AF92BF92CF92DF92EF92FF920F931F935C
:103AA000CF93DF93CDB7DEB7CA1BDB0B0FB6F8940D
:103AB000DEBF0FBECDBF09942A88398848885F844D
:103AC0006E847D848C849B84AA84B984C884DF80BE
:103AD000EE80FD800C811B81AA81B981CE0FD11DA2
:103AE0000FB6F894DEBF0FBECDBFED010895A29FC3
:103AF000B001B39FC001A39F700D811D1124911DC2
:103B0000B29F700D811D1124911D08955058BB273F
:103B1000AA270E949E1D0C94E41C0E94D61C38F01B
:103B20000E94DD1C20F039F49F3F19F426F40C9418
:103B3000D31C0EF4E095E7FB0C94CD1CE92F0E94FA
:103B4000F51C58F3BA17620773078407950720F02E
:103B500079F4A6F50C94171D0EF4E0950B2EBA2FF0
:103B6000A02D0B01B90190010C01CA01A001112483
:103B7000FF27591B99F0593F50F4503E68F11A162F
:103B8000F040A22F232F342F4427585FF3CF4695C0
:103B900037952795A795F0405395C9F77EF41F16E2
:103BA000BA0B620B730B840BBAF09150A1F0FF0FAC
:103BB000BB1F661F771F881FC2F70EC0BA0F621F98
:103BC000731F841F48F4879577956795B795F79588
:103BD0009E3F08F0B0CF9395880F08F09927EE0F1D
:103BE0009795879508950E94FA1D6894B1110C94D9
:103BF000181D08950E94FD1C88F09F5798F0B92F5A
:103C00009927B751B0F0E1F0660F771F881F991F11
:103C10001AF0BA95C9F714C0B13091F00E94171D7F
:103C2000B1E008950C94171D672F782F8827B85F8F
:103C300039F0B93FCCF3869577956795B395D9F769
:103C40003EF490958095709561957F4F8F4F9F4F73
:103C5000089597FB072E16F4009407D077FD09D03E
:103C60000E943F1F07FC05D03EF4909581959F4F21
:103C70000895709561957F4F0895052E97FB1EF46A
:103C800000940E94541E57FD07D00E941E1D07FC81
:103C900003D04EF40C94541E5095409530952195C8
:103CA0003F4F4F4F5F4F0895909580957095619568
:103CB0007F4F8F4F9F4F0895E894DF93CF93FC0180
:103CC000DB010E94771D7F936F93E9019A01AC019C
:103CD000BF93AF933F932F93DF010E94771D26F48C
:103CE0006C1B7D0B820B930B9E01EB01FC010E9470
:103CF000591FAF91BF912F913F910E94591FBE0153
:103D0000CF01F9012F913F91CF91DF9108956894F0
:103D100001C0E894F92FF12B12F00C94BB1EA0E027
:103D2000B0E0E5E9FEE10C94461D092E059422F46D
:103D30000E94171F112392F4F0E80F26FFEFE09482
:103D4000F09400951095B094C094D094A194BF0ABB
:103D5000CF0ADF0AEF0AFF0A0F0B1F0B0E94C61ED5
:103D600007FC0E94171FCDB7DEB7ECE00C94621D74
:103D7000689401C0E8948F929F92CF93DF930E9442
:103D8000C61EDF91CF919F908F900895882499242B
:103D9000F401E401B0E49F93AA279A158B049C04D4
:103DA000ED05FE05CF05D007A10798F4AD2FDC2F58
:103DB000CF2FFE2FE92D982C892E982F872F762F25
:103DC000652F542F432F322F2227B85031F7BF9140
:103DD00027C01B2EBF91BB27220F331F441F551F27
:103DE000661F771F881F991F881C991CEE1FFF1FD5
:103DF000CC1FDD1FAA1FBB1F8A149B04EC05FD0509
:103E0000CE05DF05A007B10748F08A189B08EC092A
:103E1000FD09CE09DF09A00BB10B21601A94E1F670
:103E20002EF49401AF01BE01CD01000C0895609500
:103E300070958095909530954095509521953F4F80
:103E40004F4F5F4F6F4F7F4F8F4F9F4F089500240D
:103E5000A7FD00942A0F301D401D501D601D701DD0
:103E6000801D901D08950024A7FD00942A17300599
:103E70004005500560057005800590050895AA1B52
:103E8000BB1B51E107C0AA1FBB1FA617B70710F045
:103E9000A61BB70B881F991F5A95A9F78095909577
:103EA000BC01CD010895EE0FFF1F0590F491E02DA8
:103EB00009940E94771D460F571FC81FD91F08F489
:103EC00031960895A0E0B0E0E8E6FFE10C94441DCF
:103ED000EC01009721F4CB010E94A218B8C0FC01AC
:103EE000E60FF71F9C0122503109E217F30708F48F
:103EF000ACC0D9010D911C91119706171707B0F0AE
:103F00000530110508F49FC0C8010497861797076C
:103F100008F499C002501109061B170B0193119365
:103F20006D937C93CF010E9437198DC05B01A01A5D
:103F3000B10A4C01800E911EA0917707B0917807CD
:103F400040E050E0E12CF12C109709F44AC0A8158C
:103F5000B905D1F56D907C901197630182E0C80E90
:103F6000D11CCA14DB0480F1A3014A195B096A0160
:103F700082E0C80ED11C1296BC9012971396AC9199
:103F8000B5E0CB16D10440F0B282A38351834083C5
:103F9000D9016D937C930AC00E5F1F4FC301800F40
:103FA000911FF90191838083EB2DFA2FE114F10425
:103FB00031F0D7011396FC93EE93129744C0F0931F
:103FC0007807E09377073FC08D919C911197481730
:103FD000590708F4AC017D0112960D90BC91A02DFB
:103FE000B3CF809175079091760788159905E1F414
:103FF00046175707C8F480910C0190910D01009766
:1040000041F48DB79EB74091100150911101841B6E
:10401000950BE817F907C8F4F0937607E093750756
:10402000F901718360830FC0CB010E94A2187C014B
:10403000009759F0A801BE010E943120CE010E94D4
:104040003719C70104C0CE0102C080E090E0CDB7AF
:10405000DEB7EEE00C94601D81E090E0F8940C94E3
:104060004323FB01DC0102C001900D9241505040FE
:10407000D8F70895FB01DC018D91019080190110A2
:10408000D9F3990B0895FB01DC0101900D920020FA
:10409000E1F70895FB01DC014150504030F08D9173
:1040A0000190801919F40020B9F7881B990B089525
:1040B000FB0151915523A9F0BF01DC014D9145173A
:1040C0004111E1F759F4CD010190002049F04D91E3
:1040D00040154111C9F3FB014111EFCF81E090E0A0
:1040E00001970895AEE0B0E0E8E7F0E20C944E1DD1
:1040F0000D891E898F89988D26E02C831A83098368
:1041000097FF02C080E090E801979E838D83AE0107
:10411000455E5F4F698D7A8DCE0101960E94C52064
:104120004D815E8157FD0AC02F81388542175307A4
:104130000CF49A01F801E20FF31F10822E96E4E0CE
:104140000C946A1DAEE0B0E0E8EAF0E20C944E1D7B
:104150000D891E8986E08C831A8309838FEF9FE780
:104160009E838D83AE01475E5F4F6F89788DCE0150
:1041700001960E94C5202F813885F801E20FF31FB8
:1041800010822E96E4E00C946A1DACE0B0E0EBECFB
:10419000F0E20C94401D7C016B018A01FC01178246
:1041A0001682838181FFBDC1CE0101964C01F701CA
:1041B0009381F60193FD859193FF81916F0188238F
:1041C00009F4ABC1853239F493FD859193FF819158
:1041D0006F01853229F4B70190E00E94AD22E7CF4C
:1041E000512C312C20E02032A0F48B3269F030F4D5
:1041F000803259F0833269F420612CC08D3239F05D
:10420000803339F4216026C02260246023C02860F6
:1042100021C027FD27C030ED380F3A3078F426FF53
:1042200006C0FAE05F9E300D1124532E13C08AE0C1
:10423000389E300D1124332E20620CC08E3221F4B2
:1042400026FD6BC1206406C08C3611F4206802C0C4
:10425000883641F4F60193FD859193FF81916F01BA
:104260008111C1CF982F9F7D9554933028F40C5F16
:104270001F4FFFE3F9830DC0833631F0833771F0B0
:10428000833509F05BC022C0F801808189830E5F0D
:104290001F4F44244394512C540115C03801F2E0BF
:1042A0006F0E711CF801A080B18026FF03C0652D40
:1042B00070E002C06FEF7FEFC5012C870E94A22241
:1042C0002C0183012C852F77222E17C03801F2E0B4
:1042D0006F0E711CF801A080B18026FF03C0652D10
:1042E00070E002C06FEF7FEFC5012C870E9497221C
:1042F0002C012C852068222E830123FC1BC0832DDA
:1043000090E048165906B0F4B70180E290E00E94B0
:10431000AD223A94F4CFF50127FC859127FE8191D7
:104320005F01B70190E00E94AD2231103A94F1E0B4
:104330004F1A51084114510471F7E5C0843611F049
:10434000893639F5F80127FF07C0608171818281C4
:1043500093810C5F1F4F08C060817181072E000C94
:10436000880B990B0E5F1F4F2F76722E97FF09C097
:1043700090958095709561957F4F8F4F9F4F2068E6
:10438000722E2AE030E0A4010E94E522A82EA8188F
:1043900044C0853729F42F7EB22E2AE030E025C0B4
:1043A000F22FF97FBF2E8F36C1F018F4883579F0DF
:1043B000B4C0803719F0883721F0AFC02F2F2061AB
:1043C000B22EB4FE0DC08B2D8460B82E09C024FF20
:1043D0000AC09F2F9660B92E06C028E030E005C0C5
:1043E00020E130E002C020E132E0F801B7FE07C072
:1043F00060817181828193810C5F1F4F06C0608153
:10440000718180E090E00E5F1F4FA4010E94E522C1
:10441000A82EA818FB2DFF777F2E76FE0BC0372D18
:104420003E7FA51450F474FE0AC072FC08C0372DFC
:104430003E7E05C0BA2C372D03C0BA2C01C0B52C66
:1044400034FF0DC0FE01EA0DF11D8081803311F4AF
:10445000397E09C032FF06C0B394B39404C0832FE1
:10446000867809F0B39433FD13C030FF06C05A2C90
:10447000B31418F4530C5B18B32CB31468F4B701DD
:1044800080E290E03C870E94AD22B3943C85F5CF5A
:10449000B31410F43B1801C0312C34FF12C0B70123
:1044A00080E390E03C870E94AD223C8532FF17C03C
:1044B00031FD03C088E790E002C088E590E0B701D5
:1044C0000CC0832F867859F031FF02C08BE201C007
:1044D00080E237FD8DE2B70190E00E94AD22A51485
:1044E00038F4B70180E390E00E94AD225A94F7CFF0
:1044F000AA94F401EA0DF11D8081B70190E00E94B9
:10450000AD22A110F5CF332009F451CEB70180E2DE
:1045100090E00E94AD223A94F6CFF7018681978110
:1045200002C08FEF9FEF2C96E2E10C945C1DFC0122
:104530000590615070400110D8F7809590958E0FCE
:104540009F1F0895FC016150704001900110D8F741
:10455000809590958E0F9F1F08950F931F93CF9373
:10456000DF93FB01238121FD03C08FEF9FEF28C064
:1045700022FF16C046815781248135814217530797
:1045800044F4A081B1819D012F5F3F4F318320838F
:104590008C93268137812F5F3F4F3783268310C04E
:1045A000EB01092F182F0084F185E02D0995892B47
:1045B000E1F68E819F8101969F838E83812F902FBC
:1045C000DF91CF911F910F910895FA01AA2728300A
:1045D00051F1203181F1E8946F936E7F6E5F7F4FD0
:1045E0008F4F9F4FAF4FB1E03ED0B4E03CD0670F4C
:1045F000781F891F9A1FA11D680F791F8A1F911D9F
:10460000A11D6A0F711D811D911DA11D20D009F4EE
:1046100068943F912AE0269F11243019305D319330
:10462000DEF6CF010895462F4770405D4193B3E019
:104630000FD0C9F7F6CF462F4F70405D4A3318F0C0
:10464000495D31FD4052419302D0A9F7EACFB4E071
:10465000A6959795879577956795BA95C9F7009729
:104660006105710508959B01AC010A2E06945795CA
:10467000479537952795BA95C9F7620F731F841F21
:10468000951FA01D089511E0CFE5D1E004C0FE0103
:104690000E94531F2196C036D107C9F7F894FFCF67
:1046A00001000100680200C608C608010000790781
:1046B0008000000000000508000E9D074C08CE0792
:1046C000AC07C00700000000190C730900000000CF
:1046D000E008000E6E09DF0834094C09C708616C58
:1046E00061726D20696E74657272757074004154E8
:1046F0002B434D47523D002B434D47523A003F005C
:104700002F636F6E660A2F616C61726D5B302D31A5
:104710005D3D5B302D315D0A2F74696D65723D5BC7
:10472000312D39395D5B682C6D2C645D0A2F616415
:10473000646E756D3D2B283132295B302D395D0A51
:104740002F726D6E756D3D2B283132295B302D39FE
:104750005D0A2F62616C616E636500436F6E66690E
:10476000677572696E67206D6F6465206469736137
:10477000626C65642E002F636F6E66002F616C6142
:10478000726D00496E646578206572726F72203AAE
:10479000200053796E746178206572726F720057D1
:1047A000726F6E6720666F726D6174002F61646452
:1047B0006E756D3D002F726D6E756D3D00476574B1
:1047C0002062616C616E6365004F4B0041542B4366
:1047D0005553443D312C222A31313123220D0A0018
:1047E00041542B435553443D312C222A313131233E
:1047F00022002B435553443A2C002F7461726500FC
:10480000556E6B6E6F6E7720636F6D6D616E6400B9
:1048100041542B434D47463D310D0A0041542B4333
:104820004D47533D22003E002F616C61726D303D5B
:10483000000A2F616C61726D313D000A2F74696D41
:1048400065723D000A6E756D626572733A0A0045C5
:1048500052524F523A434D4753004552524F523AEB
:10486000434D4746002B434D47533A0041542B4399
:104870004D47443D312C340D0A00416C6C206E755F
:104880006D626572732066696C6C6564206F757407
:10489000004E6F2073756368206E756D62657200DF
:1048A0004F4B0D0A0041540D0A0041542B4346550D
:1048B0004E3D310D0A0041542B4350494E3F0D0AE5
:1048C000002B4350494E3A20524541445900564D21
:1048D0004450565F317C315F564D4450560D0A00AE
:1048E00053746172742E0053494D38303020696E14
:1048F000697469616C697A6174696F6E20636F6D48
:10490000706C65746500564D4450525F007C005FCA
:10491000564D4450520D0A00564D4450455F003AE2
:10492000323A005F564D44504500616C61726D41F2
:104930006374697661746F722074726967676572F7
:10494000656400414C41524D21004E6F626F6479A5
:104950002068616E676564210074696D65724163EA
:1049600074697661746F72207472696767657265C5
:10497000640074656D7065726174757265203A20AB
:10498000000A776569677468203A200041542B5308
:10499000415042523D332C312C436F6E7479706517
:1049A0002C475052530D0A0041542B534150425250
:1049B0003D332C312C41504E2C7777772E61622E6F
:1049C0006B79697661737461722E6E65740D0A007D
:1049D00041542B53415042523D312C310D0A00417C
:1049E000542B48545450494E49540D0A0041542BFD
:1049F00048545450504152413D4349442C310D0AD2
:104A00000041542B48545450504152413D55524C52
:104A10002C687474703A2F2F677072736265652EFC
:104A2000617A75726577656273697465732E6E65F8
:104A3000742F6D61696E2E7068700D0A0041542BE1
:104A400048545450504152413D434F4E54454E54AA
:104A50002C6170706C69636174696F6E2F782D774B
:104A600077772D666F726D2D75726C656E636F64EE
:104A700065640D0A00444F574E4C4F414400415469
:104A80002B48545450444154413D3330302C313044
:104A90003030300D0A006B65793D31323326776551
:104AA000696768743D002674656D70657261747520
:104AB00072653D002B48545450414354494F4E3A7F
:104AC0000041542B48545450414354494F4E3D31BA
:104AD0000D0A0041542B485454505445524D0D0A70
:104AE0000063686563686B656428352900636F6ED1
:104AF00066206D6F646520302C2073696D207368AB
:104B0000757420646F776E002B333830393335334A
:104B100034313438360041542B434F4C503D310D25
:104B20000A00434F4C50000D0A41544425733B0D7D
:104B30000A0042555359004154480D0A0041542B74
:0C4B4000434D47533D222573220D0A000F
:107E0000112484B714BE81FFF0D085E080938100F7
:107E100082E08093C00088E18093C10086E0809377
:107E2000C20080E18093C4008EE0C9D0259A86E02C
:107E300020E33CEF91E0309385002093840096BBD3
:107E4000B09BFECF1D9AA8958150A9F7CC24DD24C4
:107E500088248394B5E0AB2EA1E19A2EF3E0BF2EE7
:107E6000A2D0813461F49FD0082FAFD0023811F036
:107E7000013811F484E001C083E08DD089C08234E0
:107E800011F484E103C0853419F485E0A6D080C0E4
:107E9000853579F488D0E82EFF2485D0082F10E0AE
:107EA000102F00270E291F29000F111F8ED06801E7
:107EB0006FC0863521F484E090D080E0DECF843638
:107EC00009F040C070D06FD0082F6DD080E0C81688
:107ED00080E7D80618F4F601B7BEE895C0E0D1E017
:107EE00062D089930C17E1F7F0E0CF16F0E7DF06D8
:107EF00018F0F601B7BEE89568D007B600FCFDCFD4
:107F0000A601A0E0B1E02C9130E011968C91119780
:107F100090E0982F8827822B932B1296FA010C0160
:107F200087BEE89511244E5F5F4FF1E0A038BF0790
:107F300051F7F601A7BEE89507B600FCFDCF97BE46
:107F4000E89526C08437B1F42ED02DD0F82E2BD052
:107F50003CD0F601EF2C8F010F5F1F4F84911BD097
:107F6000EA94F801C1F70894C11CD11CFA94CF0C13
:107F7000D11C0EC0853739F428D08EE10CD085E9AC
:107F80000AD08FE07ACF813511F488E018D01DD067
:107F900080E101D065CF982F8091C00085FFFCCF94
:107FA0009093C60008958091C00087FFFCCF809118
:107FB000C00084FD01C0A8958091C6000895E0E648
:107FC000F0E098E1908380830895EDDF803219F02E
:107FD00088E0F5DFFFCF84E1DECF1F93182FE3DFCA
:107FE0001150E9F7F2DF1F91089580E0E8DFEE27F6
:047FF000FF270994CA
:027FFE00040479
:0400000300007E007B
:00000001FF