:100000000C94F0000C9418010C9418010C94FA0450
:100010000C94FA040C94FA040C9418010C94180132
:100020000C9418010C9418010C9418010C941801EC
:100030000C9418010C9418010C9418010C941801DC
:100040000C945A040C9418010C9459030C94330327
:100050000C9418010C9418010C9418010C941801BC
:100060000C9418010C94180100407A10F35A00A067
:10007000724E18090010A5D4E80000E87648170071
:1000800000E40B54020000CA9A3B000000E1F505B1
:10009000000080969800000040420F000000A086FB
:1000A00001000000102700000000E803000000002D
:1000B0006400000000000A000000000001000000D1
:1000C00000002C76D888DC674F0823DFC1DFAE59EB
:1000D000E1B1B796E5E3E453C63AE651997696E87E
:1000E000E6C28426EB898C9B62ED407C6FFCEFBC02
:1000F0009C9F40F2BAA56FA5F490055A2AF75C932D
:100100006B6CF9676DC11BFCE0E40D47FEF520E662
:10011000B500D0ED902E0300943577050080841E45
:10012000080000204E0A000000C80C333333330FA0
:10013000986E12831141EF8D2114893BE65516CF3D
:10014000FEE6DB18D1844B381BF77C1D901DA4BB49
:10015000E424203284725E228100C9F124ECA1E5FE
:100160003D27005EBCE2613FDD83C29C7E20A3FD93
:100170001F41009D23BE46DB65F88C11AF32CA5784
:10018000E97400000000240027002A000000000895
:10019000000201000003040700000000000000004E
:1001A00000000000250028002B00000000002300B4
:1001B00026002900040404040404040402020202C8
:1001C000020203030303030301020408102040801A
:1001D0000102040810200102040810200D0EBB09C2
:1001E00011241FBECFEFD8E0DEBFCDBF25E0A2E3D4
:1001F000B4E001C01D92AD37B207E1F714E0A0E012
:10020000B1E0E0E1FFE202C005900D92A233B10738
:10021000D9F710E0CFEED0E004C02197FE010E9494
:100220006915CE3ED107C9F70E94C5090C947B170A
:100230000C940000CF92DF92EF92FF920F931F93E6
:10024000CF93DF936C017A018B01C0E0D0E0CE1533
:10025000DF0589F0D8016D918D01D601ED91FC91FA
:100260000190F081E02DC6010995892B11F47E01E2
:1002700002C02196ECCFC701DF91CF911F910F9162
:10028000FF90EF90DF90CF900895FC01538D448D47
:10029000252F30E0842F90E0821B930B541710F031
:1002A000CF96089501970895FC01918D828D98173E
:1002B00061F0828DDF01A80FB11D5D968C91928D4A
:1002C0009F5F9F73928F90E008958FEF9FEF089547
:1002D000FC01918D828D981731F0828DE80FF11D10
:1002E000858D90E008958FEF9FEF0895FC01918D2B
:1002F000228D892F90E0805C9F4F821B91098F7324
:10030000992708958BE794E00E94760121E0892BDC
:1003100009F420E0822F0895FC01848DDF01A80FED
:10032000B11DA35ABF4F2C91848D90E001968F731D
:100330009927848FA689B7892C93A089B1898C913C
:1003400080648C93938D848D981306C00288F38902
:10035000E02D80818F7D80830895EF92FF920F932F
:100360001F93CF93DF93EC0181E0888F9B8D8C8D61
:10037000981305C0E889F989808185FD24C0F62E8F
:100380000B8D10E00F5F1F4F0F731127E02E8C8D28
:10039000E8120CC00FB607FCFACFE889F989808112
:1003A00085FFF5CFCE010E948C01F1CF8B8DFE0130
:1003B000E80FF11DE35AFF4FF0820B8FEA89FB89AA
:1003C0008081806207C0EE89FF896083E889F989AE
:1003D00080818064808381E090E0DF91CF911F91E4
:1003E0000F91FF90EF900895CF93DF93EC01888DEC
:1003F0008823C9F0EA89FB89808185FD05C0A88929
:10040000B9898C9186FD0FC00FB607FCF5CF8081AE
:1004100085FFF2CFA889B9898C9185FFEDCFCE01F8
:100420000E948C01E7CFDF91CF91089580E090E0AA
:10043000892B29F00E94820181110C9400000895FB
:10044000833081F028F4813099F08230A1F0089552
:100450008730A9F08830B9F08430D1F480918000E1
:100460008F7D03C0809180008F77809380000895F6
:1004700084B58F7702C084B58F7D84BD0895809147
:10048000B0008F7703C08091B0008F7D8093B00063
:1004900008953FB7F8948091730490917404A091EB
:1004A0007504B091760426B5A89B05C02F3F19F0BE
:1004B0000196A11DB11D3FBFBA2FA92F982F8827E4
:1004C000820F911DA11DB11DBC01CD0142E0660F3F
:1004D000771F881F991F4A95D1F70895DC0180E0A6
:1004E000615090F09D919827E92FEF70F0E0EE5960
:1004F000FE4F249192959F70E92FF0E0EE58FE4F49
:10050000E4918E2F8227ECCF089520911A05309127
:100510001B052817390771F490911805809119056A
:10052000981741F0E0911805F0E0EE5CFB4F8081F8
:1005300090E008958FEF9FEF089508951F93CF9354
:10054000DF93DC015C962D913C915D97211531057F
:1005500039F481E090E013969C938E9312973DC0FE
:100560005196ED91FC91529750969C915097892FFE
:1005700080951FB75E964C915E9741FB772770F987
:1005800041FD6095F8944081772311F0492B01C01B
:1005900048234083E9012197F1F748E0508160FF4B
:1005A00002C0592B01C058235083E9012197F1F76C
:1005B0006695415099F7772321F0908189238083B4
:1005C00003C08081982B90831FBF5C968D919C9176
:1005D0005D970197F1F721E030E0C901DF91CF91FC
:1005E0001F91089520911A0530911B05281739078E
:1005F00071F4809119052091180590E0805C9F4F5F
:10060000821B910960E470E00E940015089580E06B
:1006100090E0089520911A0530911B05281739079D
:10062000B9F49091180580911905981789F0E09117
:100630001805F0E0EE5CFB4F80812091180530E05A
:100640002F5F3F4F2F7333272093180590E00895B5
:100650008FEF9FEF0895089580E090E008950C9447
:1006600004160E9466171F920F920FB60F92112464
:100670002F933F934F935F936F937F938F939F93AA
:10068000AF93BF93EF93FF938BE794E00E948C01AD
:10069000FF91EF91BF91AF919F918F917F916F915A
:1006A0005F914F913F912F910F900FBE0F901F9030
:1006B00018951F920F920FB60F9211242F938F93BC
:1006C0009F93EF93FF93E0918B04F0918C048081D2
:1006D000E0919104F091920482FD12C0908180918A
:1006E00094048F5F8F7320919504821751F0E091ED
:1006F0009404F0E0E558FB4F958F8093940401C07B
:100700008081FF91EF919F918F912F910F900FBE5C
:100710000F901F901895CF93DF93282F30E0F901A9
:10072000E457FE4F8491F901E853FE4FD491F9014B
:10073000EC54FE4FC491CC2391F081110E94200211
:10074000EC2FF0E0EE0FFF1FE655FE4FA591B491A0
:10075000EC91ED2381E090E021F480E002C080E0A4
:1007600090E0DF91CF9108951F93CF93DF93282FCF
:1007700030E0F901E457FE4F8491F901E853FE4F50
:10078000D491F901EC54FE4FC491CC23C9F0162F3B
:1007900081110E942002EC2FF0E0EE0FFF1FE056C7
:1007A000FE4FA591B4918FB7F894111105C09C919B
:1007B000ED2FE095E92302C0EC91ED2BEC938FBF78
:1007C000DF91CF911F910895CF93DF9390E0FC01CB
:1007D000E853FE4F2491FC01EC54FE4F8491882392
:1007E00061F190E0880F991FFC01EE57FE4FC59113
:1007F000D491FC01E056FE4FA591B491611109C05E
:100800009FB7F8948881209582238883EC912E23CA
:100810000BC0623061F49FB7F8943881822F8095C5
:1008200083238883EC912E2B2C939FBF06C08FB718
:10083000F894E8812E2B28838FBFDF91CF91089504
:100840008F929F92AF92BF92CF92DF92EF92FF92E0
:100850006B017C010E9449024B015C01C114D1046F
:10086000E104F104F1F00E944902DC01CB01881996
:100870009909AA09BB09883E9340A105B10570F307
:1008800021E0C21AD108E108F10888EE880E83E061
:10089000981EA11CB11CC114D104E104F10419F784
:1008A000DDCFFF90EF90DF90CF90BF90AF909F9003
:1008B0008F9008951F920F920FB60F9211242F93CD
:1008C0003F938F939F93AF93BF93809177049091C1
:1008D0007804A0917904B0917A043091720423E0F5
:1008E000230F2D3720F40196A11DB11D05C026E868
:1008F000230F0296A11DB11D2093720480937704EB
:1009000090937804A0937904B0937A04809173044F
:1009100090917404A0917504B09176040196A11D84
:10092000B11D8093730490937404A0937504B093E5
:100930007604BF91AF919F918F913F912F910F902E
:100940000FBE0F901F901895DF92EF92FF920F93BA
:100950001F93CF93DF93EC018B810E948B03892B34
:10096000D9F76A818B810E943308082F6A818B81B5
:100970000E943308182F6A818B810E943308D82E79
:10098000E12CF12C2C8130E0E216F30660F461E0FA
:100990008A810E94B40360E08A810E94B4032FEF31
:1009A000E21AF20AEFCF812F90E0A0E0B0E0BA2F78
:1009B000A92F982F8827A02BAC01BD014D29802F8E
:1009C000880F880B90E0A0E0B0E0B82FAA27992705
:1009D00088278A019B01082B192B2A2B3B2BC90145
:1009E000B801DF91CF911F910F91FF90EF90DF90B1
:1009F000089508951F920F920FB60F9211242F930E
:100A00003F934F935F936F937F938F939F93AF9396
:100A1000BF93EF93FF93E0911A05F0911B05309778
:100A200009F451C0968DA685B785858591FF04C0D0
:100A30009C91892329F447C09C91892309F043C0E4
:100A4000A389B4899C918589809589238C93868913
:100A500097890197F1F7608D718DA685B7855585CA
:100A600038E020E0CB010197F1F7822F90E09595D7
:100A70008795282F4C91452309F02068315091F734
:100A8000868D81FD20958091190590E001968F73E8
:100A9000992730911805381749F0A0911905B0E051
:100AA000AE5CBB4F2C938093190503C0868D81608B
:100AB000868F828D938D0197F1F7A389B4899C91DC
:100AC0008589892B8C93FF91EF91BF91AF919F9175
:100AD0008F917F916F915F914F913F912F910F90E7
:100AE0000FBE0F901F901895E0911A05F0911B050D
:100AF000E817F90769F4A389B4899C9185898095E1
:100B000089238C9310921B0510921A0581E0089599
:100B100080E008956115710579F0FB0101900020D6
:100B2000E9F73197AF01461B570BDC01ED91FC91C2
:100B30000280F381E02D099480E090E00895CF9346
:100B4000DF93BC01769567957695679521E06227DE
:100B50006170C9E2D5E06E839C013695279541E02E
:100B6000242721702F838170992721E082278170AB
:100B7000888788810E94B4036F818A810E94B403B0
:100B800068858C81DF91CF910C94B403EF92FF9232
:100B90000F931F93CF93DF937C018B01C0E0D0E0D4
:100BA000F80120813181C217D307B8F480E090E0CA
:100BB0000E949F0562E470E080E090E00E942004C3
:100BC000F701808191810E949F0562E470E080E0DE
:100BD00090E00E9420042196E3CFDF91CF911F91F6
:100BE0000F91FF90EF9008956DE873E08BE794E02C
:100BF0000C948A05CF93DF93BC018BE794E00E94AD
:100C00008A05EC010E94F4058C0F9D1FDF91CF91A6
:100C100008958F929F92AF92BF920F931F93CF939D
:100C2000DF93CDB7DEB7A1970FB6F894DEBF0FBE46
:100C3000CDBF19A2423008F44AE08E010F5D1F4F6C
:100C4000842E912CA12CB12CA50194010E94141585
:100C5000E62FB901CA0101501109EA3014F4E05D30
:100C600001C0E95CD801EC93232B242B252B61F7E1
:100C7000B8018BE794E00E948A05A1960FB6F8941C
:100C8000DEBF0FBECDBFDF91CF911F910F91BF90FF
:100C9000AF909F908F9008954F925F926F927F9246
:100CA0008F929F92AF92BF92CF92DF92EF92FF927C
:100CB0006B017C01B42E9B01AC010E94FB148823C4
:100CC00019F066E274E027C026013701E89477F84E
:100CD0002FEF3FEF4FE75FE7C301B2010E94FB1424
:100CE00081110DC02FEF3FEF4FE75FE7C301B20166
:100CF0000E94861218161CF46AE274E00CC02FEFF2
:100D00003FEF4FE75FE4C701B6010E94F6141816E3
:100D100094F46EE274E08BE794E0FF90EF90DF9044
:100D2000CF90BF90AF909F908F907F906F905F908B
:100D30004F900C948A052FEF3FEF4FE75FECC70110
:100D4000B6010E94861287FDE4CF20E030E0A901C1
:100D5000C701B6010E94861287FF11C0E0917B0493
:100D6000F0917C040190F081E02D6DE28BE794E03E
:100D700009954C01F7FAF094F7F8F09402C0812C31
:100D8000912CA12C60E070E080E09FE3AB1441F077
:100D900020E030E040E251E40E944E14A394F6CFEC
:100DA0009B01AC01C701B6010E94E2132B013C017B
:100DB0000E94C7146B017C010E948B129B01AC0145
:100DC000C301B2010E94E1132B013C014AE0C701BB
:100DD000B6010E9409067C01E80CF91CBB2069F0F1
:100DE000E0917B04F0917C040190F081E02D6EE2B3
:100DF0008BE794E00995E80EF91EDB2CDD2021F14C
:100E000020E030E040E251E4C301B2010E94EC1264
:100E10002B013C010E94C7144B01A12CB12C4AE0CC
:100E2000C501B4010E940906E80EF91EC501B4010E
:100E30000E948B129B01AC01C301B2010E94E1131D
:100E40002B013C01DA94DACFC701FF90EF90DF90DD
:100E5000CF90BF90AF909F908F907F906F905F905A
:100E60004F900895BC018BE794E00C948A05809123
:100E70006B05E0916C05F0916D05F8949181982BCC
:100E800091832281982F909529232283A7E0B0E0B7
:100E90001197F1F7218192239183A3E2B0E011979A
:100EA000F1F790817894EFECF0E03197F1F7982327
:100EB00081E009F480E0089590916B05E0916C0564
:100EC000F0916D05392F309580FF13C0F894228181
:100ED000832F822382838181892B8183A3E2B0E0E7
:100EE0001197F1F78281982B9283789487ED90E0A7
:100EF00012C0F8942281832F822382838181892BDF
:100F00008183AFEFB0E01197F1F78281982B928344
:100F100078948FE090E00197F1F70895EF92FF92B7
:100F20000F931F93CF93DF931F92CDB7DEB7082F98
:100F300088E0E82EF12C11E081E0912F902309F454
:100F400080E069830E945C07110F81E0E81AF108D4
:100F50006981E114F10481F7611113C0F894E09103
:100F60006C05F0916D05918180916B0580959823BA
:100F70009183E0916C05F0916D05928189238283C4
:100F800078940F90DF91CF911F910F91FF90EF9088
:100F90000895EF92FF920F931F93CF93DF931F92C9
:100FA000CDB7DEB7182F60E085E599830E948E07E4
:100FB000E12E9981F92E8701085F1F4F60E0F7014C
:100FC00081917F010E948E07E016F106B9F70F901C
:100FD000DF91CF911F910F91FF90EF900895909125
:100FE0006B05E0916C05F0916D05F8948181292FD6
:100FF00020958223818378948DE743E050E08150EF
:1010000021F1DA011197F1F730813923C1F3F89416
:101010008281822382838181892B81837894ABE7CB
:10102000B7E01197F1F7F894818128232183A3E198
:10103000B1E01197F1F78081982381E009F080E019
:101040007894E3E6F6E03197F1F70895CF93DF93D4
:1010500042E00E944C06EC010E94F4058C0F9D1F9B
:10106000DF91CF910895FF920F931F93CF93DF935A
:10107000F82E062FC7E0D0E010E061E0802F0E943C
:10108000B4038F2D0E948B030C2E01C0880F0A948D
:10109000EAF7182B60E0802F0E94B403219768F7CD
:1010A000812FDF91CF911F910F91FF900895CF92E3
:1010B000DF92EF92FF92CF93DF93C82FD0E0C12C45
:1010C000D12C7601DC1751F08CE195E00E94A4044C
:1010D000C60ED71EE81EF91EDF5FF4CF2D2F30E0BD
:1010E00040E050E0C701B6010E943615CA01B901BF
:1010F000DF91CF91FF90EF90DF90CF9008954F92C6
:101100005F926F927F92AF92BF92CF92DF92EF92F7
:10111000FF920F931F93CF93DF935B018A01BC0172
:1011200084E395E00E948A05E50109900020E9F733
:101130002197CA19DB098FB7F89440907704509033
:1011400078046090790470907A048FBF88EE93E001
:10115000089F6001099FD00C189FD00C1124E12C2E
:10116000F12C00E010E084E395E00E94F202892B6C
:1011700091F084E395E00E940A03F501E00FF11F6E
:101180009081981303C00F5F1F4F02C000E010E072
:101190000C171D07B9F02FB7F89480917704909140
:1011A0007804A0917904B0917A042FBF841995092D
:1011B000A609B709C816D906EA06FB06A0F68FEFFE
:1011C0009FEF0BC084E395E00E94F202009729F0A4
:1011D00084E395E00E940A03F5CFDF91CF911F9140
:1011E0000F91FF90EF90DF90CF90BF90AF907F90E6
:1011F0006F905F904F9008950F931F93CF93DF935D
:10120000EC0188819981009729F02A813B8126177A
:10121000370788F48B016F5F7F4F0E949C16009701
:1012200061F0998388831B830A832C813D81232B62
:1012300011F4FC01108281E001C080E0DF91CF91C8
:101240001F910F910895EF92FF920F931F93CF93E9
:10125000DF93FC01248135816115710511F480E073
:1012600019C041155105A9F07B01EC018A01020F5B
:10127000131FB8010E94FC08882389F32881398153
:101280008C819D81B701820F931F0E9474171D836B
:101290000C8381E0DF91CF911F910F91FF90EF9030
:1012A0000895CF93DF93EC0188819981009711F025
:1012B0000E940416198218821D821C821B821A82C7
:1012C000DF91CF910895CF93DF93EC016115710504
:1012D00061F0FB0101900020E9F73197AF01461B57
:1012E000570B0E942309811103C0CE010E945109AE
:1012F000CE01DF91CF910895CF93DF93EC01FB01F5
:1013000044815581608171810E942309811103C04C
:10131000CE010E945109CE01DF91CF910895EF9245
:10132000FF920F931F93CF93DF938C017B01611585
:10133000710569F0FB0101900020E9F73197EF0199
:10134000C61BD70BBE010E94FC08811104C0C80156
:101350000E94510908C0F801D583C483B701808178
:1013600091810E947417C801DF91CF911F910F9155
:10137000FF90EF90089585E291E09093350580937A
:10138000340584E395E00C947405CF93DF93CDB7D7
:10139000DEB7EF970FB6F894DEBF0FBECDBF7894DF
:1013A00084B5826084BD84B5816084BD85B582606A
:1013B00085BD85B5816085BD80916E00816080931B
:1013C0006E00109281008091810082608093810084
:1013D0008091810081608093810080918000816094
:1013E000809380008091B10084608093B1008091EF
:1013F000B00081608093B00080917A008460809317
:101400007A0080917A00826080937A0080917A00DD
:10141000816080937A0080917A00806880937A005E
:101420001092C10081E090E00E949F05E0918B0442
:10143000F0918C0482E08083E0918704F09188042D
:101440001082E0918904F0918A048FEC80831092DD
:101450009304E0918F04F091900486E08083E09102
:101460008D04F0918E04808180618083E0918D04F1
:10147000F0918E04808188608083E0918D04F091EA
:101480008E04808180688083E0918D04F0918E04C9
:1014900080818F7D808383E391E00E94FA05109222
:1014A000000161E080E10E94E40361E085E00E94C8
:1014B000E40362E082E00E94E40362E083E00E94D1
:1014C000E40361E085E00E94E40345E050E06BE462
:1014D00071E08EE491E00E947F08892B29F088E377
:1014E00091E00E94FA05F1CF83E591E00E94FA05B0
:1014F00084E691E00E94FA050EE110E01A83098368
:1015000084E090E09BA38AA36E0122E2C20ED11C6C
:10151000CE0101967C01BC01C6010E94C60586E78A
:1015200091E00E94FA0582E30E9457080E948D1202
:101530000E94C014609321057093220580932305B7
:101540009093240582E30E94570880902105909093
:101550002205A0902305B0902405681979098A090D
:101560009B090E948D129B01AC011A83098381E0C3
:1015700090E09BA38AA3B701C6012CAF3DAF4EAF4D
:101580005FAF0E94C60588E891E00E9432072CAD4B
:101590003DAD4EAD5FADCA01B9010E94260882E3A0
:1015A0000E9457088090210590902205A090230565
:1015B000B0902405681979098A099B090E948D1247
:1015C0004B015C0184E991E00E943207C501B4013E
:1015D0000E9426082CAD3DAD4EAD5FADC501B401F6
:1015E0000E94E113609325057093260580932705DB
:1015F000909328058EE991E00E94FA0582E090E040
:101600000E949F051E019AE2290E311CE8E0EC0DB4
:10161000EAAFF9E0FE0DFBAF82E090E00E949F058B
:1016200080917805811104C00E94EF07811115C0D7
:101630001092760510927805109277058FEA91E066
:101640000E94FA050E94F405109276051092780522
:1016500010927705E6E7F5E053C060E080EF0E9466
:101660008E0701E0B12CA12C11E00E9437078CAF4E
:101670000E9437079CAD913019F48130C9F435C010
:10168000EB2DF0E098131EC080917605181740F4FA
:10169000DF01A559BA4F13968C91802349F402C0FB
:1016A000181731F090E0193060F41093770509C0F5
:1016B000EB2DF0E0E559FA4F8381802B838391E095
:1016C00008C0A12EE559FA4F2381802F80958223EF
:1016D0008383892F0E945C071F5F000F11F4B3946E
:1016E00001E027E02B1508F0C0CF113408F4A0CF9B
:1016F000A0927605A11010C081E0809378050CC0FF
:10170000129285E0EE36F807D9F76AEF70E080E0D4
:1017100090E00E9420042FC080916E05882309F478
:1017200087CFAEE6B5E0F6018D918193E215F30522
:10173000D9F780E294E00E943207860160E28BE7ED
:1017400094E00E94AD01F80161918F0170E080E0AA
:1017500090E040E10E940906FAADF013EFCF67E098
:10176000C6010E946E0299A5891709F499C182ECFD
:1017700091E00E94FA0584E10E945708009121053A
:10178000109122052091230530912405601B710BD7
:10179000820B930B0E948D12209125053091260516
:1017A00040912705509128050E944E144B015C0181
:1017B00004E110E01EAA1FAA18AE19AE8091000124
:1017C00020E4829FC001112480937C0080917A00E4
:1017D000806480937A0080917A0086FDFCCF6091CE
:1017E00078008091790070E0782B072E000C880B30
:1017F000990B0E948D122CE53FE84AE850E40E94C4
:10180000EC1220E030EC4FE754E40E944E149B01B0
:10181000AC010E94E2139B01AC016EA97FA988ADC7
:1018200099AD0E94E2136EAB7FAB88AF99AF0150C8
:10183000110921F620E030E040EA51E40E944E1404
:101840006EAB7FAB88AF99AF85E692E00E9432071E
:10185000C301B2010E94260885E792E00E94320788
:10186000C501B4010E94260820E030E0A901C501AD
:10187000B4010E94861287FF04C0B7FAB094B7F88B
:10188000B09444E650E06BE471E086E892E00E9498
:101890007F0844E650E06BE471E082EA92E00E9447
:1018A0007F0844E650E06BE471E08AEC92E00E942D
:1018B0007F0844E650E06BE471E089ED92E00E941D
:1018C0007F0844E650E06BE471E087EE92E00E940E
:1018D0007F0844E650E06BE471E08BEF92E00E94F9
:1018E0007F0844E650E06BE471E087E393E00E94F8
:1018F0007F0844E650E06FE673E088E793E00E94DB
:101900007F081BA21AA21DA21CA21FA21EA2870151
:1019100022E044E06EA97FA988AD99AD0E94D60F60
:10192000BC01C6010E948F091BA61AA61DA61CA6F3
:101930001FA61EA6C301B2010E94C714DC01CB0181
:101940004AE0B7010E94F60FB701C1010E948F095A
:1019500019AA18AA1BAA1AAA1DAA1CAAC501B40171
:101960000E94C714DC01CB014AE0B7010E94F60FC8
:10197000B701CE01C0960E948F091A8219821C827B
:101980001B821E821D826FE070E0C7010E94FC086E
:10199000811104C0C7010E9451090AC08FE090E084
:1019A0009E838D8360E973E089819A810E94741718
:1019B000BE01605D7F4FC7010E947C0960EA73E051
:1019C0000E946309B1010E947C096EEA73E00E94E3
:1019D0006309B6010E947C096DE873E00E94630907
:1019E00040E157E26BE471E0FC01808191810E944B
:1019F0007F0889819A810E94041688A999A90E946A
:101A000004168AA59BA50E9404168AA19BA10E9488
:101A1000041648E853E168EB73E085EC93E00E941C
:101A20007F0867ED73E084E395E00E948A0585EE08
:101A300093E00E94320786EF93E00E94320788EA23
:101A400091E00E94FA0505E010E08EE1A82EB12C8D
:101A500084E090E00E949F0568EE73E080E090E0F3
:101A60000E94200487E090E00E949F0568EE73E0EA
:101A700080E090E00E942004F1E0AF1AB10841F745
:101A800085E090E00E949F0568EE73E080E090E0C2
:101A90000E94200401501109C1F60E941602BCCD1B
:101AA0000E94F4058AA1823269F0883241F08031C7
:101AB00079F484ED91E00E94FA0511E00CC085EE06
:101AC00091E002C086EF91E00E94FA0510E003C0A9
:101AD00086E092E04ECE0E94EF07C6010E94C90741
:101AE00061E084E40E948E0768EE73E080E090E09D
:101AF0000E9420040E94EF07082FC6010E94C90718
:101B000060E08EEB0E948E078DE292E00E94320729
:101B1000602F70E080E090E040E10E94090687E5D8
:101B200092E00E943207570138E0832E912C01E0A9
:101B3000712C0E9437078111702A000F21E0821A50
:101B40009108B9F7F50171925F01672D70E080E0AF
:101B500090E040E10E94090687E592E00E9432078A
:101B6000FBADFA11E1CF87E392E00E94320768E013
:101B7000C7010E946E02682F70E080E090E040E1B3
:101B80000E9409060E94F4056A8170E0762F66279C
:101B90008981682B112389F093E0660F771F9A954E
:101BA000E1F788858031A9F42F818CE090E0821BD9
:101BB0009109607F680F791F0CC08D81807611F4C8
:101BC000687F07C0803211F46C7F03C0803409F451
:101BD0006E7F072E000C880B990B0E948D1220E05F
:101BE00030E040E85DE30E94EC122B013C018DE304
:101BF00092E00E94320742E0C301B2010E944C060B
:101C00008EE492E00E94320742E060E070E0CB0197
:101C10000E944C0689E592E0ACCD10927E041092B1
:101C20007D0488EE93E0A0E0B0E080937F04909381
:101C30008004A0938104B09382048BE091E09093A0
:101C40007C0480937B0485EC90E0909388048093DF
:101C5000870484EC90E090938A048093890480EC5C
:101C600090E090938C0480938B0481EC90E09093AF
:101C70008E0480938D0482EC90E090939004809386
:101C80008F0486EC90E090939204809391041092DC
:101C9000940410929504109296041092970460E0B8
:101CA00084E00E94E403ECECF1E0E491E0936B0546
:101CB000E8EBF1E0E491F0E0EE0FFF1FE655FE4F98
:101CC0008591949190936D0580936C0510927605A3
:101CD0001092780510927705E6E7F5E0129225E07C
:101CE000EE36F207D9F7109237051092360588EED6
:101CF00093E0A0E0B0E08093380590933905A0937D
:101D00003A05B0933B0585E291E0909335058093C9
:101D1000340510924B0510924A0510924D05109211
:101D20004C0510924F0510924E05109251051092DD
:101D30005005609152056E7F6D7F609352056695E8
:101D4000617081E068278AE00E94B40361E08AE064
:101D50000E94E403E2EDF1E0E491E0934405EEEB50
:101D6000F1E0E491F0E0EE0FFF1FE056FE4F8591A9
:101D70009491909346058093450560E089E00E9428
:101D8000E4038091520581FD04C061E089E00E9476
:101D9000B40389E080934005E1EDF1E0E491E09344
:101DA0004105EDEBF1E0E491F0E0EE0FFF1FE655A9
:101DB000FE4F8591949190934305809342058FE067
:101DC00097E2909333058093320561E08FE00E94A3
:101DD000E40310924F0510924E0510924D0510929B
:101DE0004C0510924B0510924A058DE991E09093B5
:101DF00051058093500590914005963108F057C0E9
:101E00002DEB30E030934B0520934A052BE931E070
:101E100030934D0520934C052CE231E030934F0573
:101E200020934E0520916800983050F031E09E30AC
:101E300008F430E081E001C0880F3A95EAF701C06C
:101E400084E0822B80936800983038F09E3040F018
:101E5000963148F020E030E008C02DE630E005C0C3
:101E60002BE630E002C02CE630E0309348052093AA
:101E70004705983030F481E001C0880F9A95EAF761
:101E80000EC0292F30E09E3018F42850310902C0CE
:101E90002E50310981E001C0880F2A95EAF780931E
:101EA000490580915005909151050197F1F7809176
:101EB0004E0590914F05892B21F180911A05909143
:101EC0001B0525E084339207E1F0009711F00E9492
:101ED0007405809152058E7F8093520510921905EA
:101EE0001092180584E395E090931B0580931A05E2
:101EF000E0914705F0914805908180914905892B33
:101F0000808386E090E090932A058093290587E0FE
:101F100090E090932C0580932B0588E090E09093BF
:101F20002E0580932D0561E086E00E94E40361E0C8
:101F300080912B050E94E40361E080912D050E94B1
:101F4000E4038DE191E090931D0580931C051092B0
:101F5000210510922205109223051092240580E09D
:101F600090E0A0E8BFE38093250590932605A09319
:101F70002705B093280583E180931E0582E18093B5
:101F80001F0561E083E10E94E40360E080911F058A
:101F90000E94E40381E08093200560E080911E05AB
:101FA0000E94B4038CE195E00C94A404EF920F938B
:101FB0001F93CF93DF93E80147FD02C034E001C0D7
:101FC00034E1E42F440FFF0BF7FF03C0F195E195D7
:101FD000F109E32E022F2E2FAE010E941010CE0128
:101FE000DF91CF911F910F91EF900895BB27FB01D7
:101FF0005527AA27880F991FAA1FA41710F0A41B02
:1020000083955051B9F7A05DAA3308F0A95DA1935B
:10201000009779F7B111B1931192CB010C9476121C
:102020004F925F926F927F929F92AF92BF92CF92A8
:10203000DF92EF92FF920F931F93CF93DF93CDB771
:10204000DEB729970FB6F894DEBF0FBECDBF6A0189
:10205000122FB02E2BE3201720F0FF24F394F00E64
:1020600002C0BCE3FB2E0F2D27E0AE014F5F5F4F98
:102070000E949E11AC018981982F9970913031F0A6
:10208000E1FC06C0E0FE06C090E205C09DE203C090
:102090009BE201C090E0EE2DE07183FF3CC0911106
:1020A00002C083E001C084E0811718F4212F281BAF
:1020B00001C020E0E1110BC0F601822F30E288233D
:1020C00019F031938150FBCFC20ED11C20E099232F
:1020D00029F0D6019C93F60131966F01C601039653
:1020E000E2FE0AC03EE4D6013C9341E411964C93D3
:1020F000119712963C9306C03EE6F601308341E606
:1021000041833283FC01322F40E2332309F442C081
:1021100041933150FACF82FF44C0911102C083E055
:1021200001C084E0811718F4212F281B01C020E092
:10213000E1110BC0F601822F30E2882319F03193B0
:102140008150FBCFC20ED11C20E0992329F0D6018B
:102150009C93F60131966F01C6010396E2FE0BC017
:1021600039E4D6013C933EE411963C93119736E452
:1021700012963C9307C039E6F60130833EE6318380
:1021800036E63283FC01322F40E2332319F04193CB
:102190003150FBCFFC01E20FF11D10828EEF9FEF5B
:1021A000B7C0F1E0911101C0F0E06F2F70E014169C
:1021B000150624F49A012F5F3F4F02C021E030E062
:1021C000260F371FBB2029F06B2D70E06F5F7F4F0C
:1021D00002C060E070E0260F371F612F70E0261705
:1021E00037071CF4121B212F01C020E03E2D38714F
:1021F00059F4D601322F60E2332319F06D93315038
:10220000FBCFC20ED11C20E0FF2331F0D6019C93FE
:10221000B6016F5F7F4F6B01E1110BC0F601922F8A
:1022200030E3992319F031939150FBCFC20ED11CAA
:1022300020E09F2D940F3A81782F7071A72E84FF94
:1022400003C0313309F49150191624F4993018F071
:1022500098E001C091E0E42F852F57FF02C0E0E035
:1022600080E06E2F782FE0E0F0E0AEE29A2E3A01A7
:10227000691A71082A01461A570A0B2D10E01195A8
:10228000019511096F3F8FEF780729F4D6019C92D1
:10229000C60101966C014617570784F0661677064B
:1022A0006CF47F01E40CF51CA1E0B0E0AC0FBD1FA5
:1022B000EA0EFB1ED7011196BC9002C090E3B92E26
:1022C000615071093196C60101967C016017710752
:1022D00024F0D601BC926C01D5CF6417750741F488
:1022E000363320F4353321F4A11002C081E3B82E37
:1022F000F601B082F701822F90E2882319F09193C2
:102300008150FBCFF701E20FF11D108280E090E0D9
:1023100029960FB6F894DEBF0FBECDBFDF91CF91E7
:102320001F910F91FF90EF90DF90CF90BF90AF90F3
:102330009F907F906F905F904F900895283008F0A5
:1023400027E03327DA01990F311D87FD9160009650
:102350006105710539F432602E5F3D9330E32A95B3
:10236000E1F708959F3F30F080387105610509F06D
:102370003C5F3C5F3D93913008F08068911DDF9396
:10238000CF931F930F93FF92EF92192F987F9695FB
:10239000E92F96959695E90FFF27EE53FF4F992762
:1023A0003327EE24FF24A701E70105900894079442
:1023B00028F4360FE71EF81E491F511D660F771FC0
:1023C000881F991F0694A1F70590079428F4E70E3B
:1023D000F81E491F561FC11D770F881F991F661FC2
:1023E0000694A1F70590079428F4F80E491F561F8C
:1023F000C71FD11D880F991F661F771F0694A1F76D
:102400000590079420F4490F561FC71FD81F990F36
:10241000661F771F881F0694A9F78491109517707F
:1024200041F0D695C79557954795F794E7941A9537
:10243000C1F7E8E6F0E06894159015913591659143
:10244000959105907FE27395E118F10A430B560BC5
:10245000C90BD009C0F7E10CF11E431F561FC91F5D
:10246000D01D7EF4703311F48A95E6CFE8940150C4
:1024700030F0080F0AF40027021708F4202F2395E4
:10248000022F7A3328F079E37D932A95E9F710C07B
:102490007D932A9589F606949795679537951795B4
:1024A0001794E118F10A430B560BC90BD00998F0A9
:1024B00023957E9173957A3308F070E37C93201313
:1024C000B8F77E9170617D9330F0839571E37D93D1
:1024D00070E32A95E1F71124EF90FF900F911F917F
:1024E000CF91DF91992787FD90950895DC01FC013C
:1024F000672F71917723E1F7329704C07C916D9338
:1025000070836291AE17BF07C8F308950E94C81286
:1025100008F481E00895E89409C097FB3EF4909593
:102520008095709561957F4F8F4F9F4F9923A9F0AC
:10253000F92F96E9BB279395F6958795779567953B
:10254000B795F111F8CFFAF4BB0F11F460FF1BC07F
:102550006F5F7F4F8F4F9F4F16C0882311F096E912
:1025600011C0772321F09EE8872F762F05C06623C0
:1025700071F096E8862F70E060E02AF09A95660F79
:10258000771F881FDAF7880F9695879597F9089532
:10259000990F0008550FAA0BE0E8FEEF1616170674
:1025A000E807F907C0F012161306E407F50798F0DC
:1025B000621B730B840B950B39F40A2661F0232BF5
:1025C000242B252B21F408950A2609F4A140A69571
:1025D0008FEF811D811D08950E94FF120C947013CE
:1025E0000E94621338F00E94691320F0952311F0C5
:1025F0000C9459130C945F1311240C94A4130E948F
:10260000811370F3959FC1F3950F50E0551F629FA2
:10261000F001729FBB27F00DB11D639FAA27F00D3B
:10262000B11DAA1F649F6627B00DA11D661F829F62
:102630002227B00DA11D621F739FB00DA11D621F47
:10264000839FA00D611D221F749F3327A00D611D64
:10265000231F849F600D211D822F762F6A2F112446
:102660009F5750409AF0F1F088234AF0EE0FFF1F79
:10267000BB1F661F771F881F91505040A9F79E3FD0
:10268000510580F00C9459130C94A4135F3FE4F3AC
:10269000983ED4F3869577956795B795F795E79526
:1026A0009F5FC1F7FE2B880F911D9695879597F92F
:1026B000089597F99F6780E870E060E008959FEFC4
:1026C00080EC089500240A941616170618060906C9
:1026D000089500240A941216130614060506089598
:1026E000092E0394000C11F4882352F0BB0F40F420
:1026F000BF2B11F460FF04C06F5F7F4F8F4F9F4F60
:10270000089557FD9058440F551F59F05F3F71F0E1
:102710004795880F97FB991F61F09F3F79F0879548
:102720000895121613061406551FF2CF4695F1DFD1
:1027300008C0161617061806991FF1CF8695710561
:10274000610508940895E894BB2766277727CB0195
:1027500097F908952F923F924F925F926F927F92D6
:102760008F929F92AF92BF92CF92DF92EF92FF92A1
:102770000F931F93CF93DF93CDB7DEB7CA1BDB0B4D
:102780000FB6F894DEBF0FBECDBF09942A883988F2
:1027900048885F846E847D848C849B84AA84B984F9
:1027A000C884DF80EE80FD800C811B81AA81B98105
:1027B000CE0FD11D0FB6F894DEBF0FBECDBFED0119
:1027C00008955058BB27AA270E94F9130C94701340
:1027D0000E94621338F00E94691320F039F49F3F81
:1027E00019F426F40C945F130EF4E095E7FB0C94B7
:1027F0005913E92F0E94811358F3BA176207730720
:102800008407950720F079F4A6F50C94A3130EF431
:10281000E0950B2EBA2FA02D0B01B90190010C01F0
:10282000CA01A0011124FF27591B99F0593F50F408
:10283000503E68F11A16F040A22F232F342F442760
:10284000585FF3CF469537952795A795F040539558
:10285000C9F77EF41F16BA0B620B730B840BBAF028
:102860009150A1F0FF0FBB1F661F771F881FC2F793
:102870000EC0BA0F621F731F841F48F487957795A7
:102880006795B795F7959E3F08F0B0CF9395880F61
:1028900008F09927EE0F9795879508950E94621486
:1028A0000C9470130E94691358F00E94621340F058
:1028B00029F45F3F29F00C94591351110C94A4137F
:1028C0000C945F130E94811368F39923B1F355238D
:1028D00091F3951B550BBB27AA2762177307840733
:1028E00038F09F5F5F4F220F331F441FAA1FA9F3C9
:1028F00035D00E2E3AF0E0E832D091505040E695B7
:10290000001CCAF72BD0FE2F29D0660F771F881F17
:10291000BB1F261737074807AB07B0E809F0BB0B0A
:10292000802DBF01FF2793585F4F3AF09E3F51051E
:1029300078F00C9459130C94A4135F3FE4F3983E81
:10294000D4F3869577956795B795F7959F5FC9F707
:10295000880F911D9695879597F90895E1E0660F88
:10296000771F881FBB1F621773078407BA0720F001
:10297000621B730B840BBA0BEE1F88F7E09508956A
:102980000E94C7146894B1110C94A41308950E9476
:10299000891388F09F5798F0B92F9927B751B0F055
:1029A000E1F0660F771F881F991F1AF0BA95C9F7D3
:1029B00014C0B13091F00E94A313B1E008950C94BB
:1029C000A313672F782F8827B85F39F0B93FCCF36E
:1029D000869577956795B395D9F73EF49095809550
:1029E000709561957F4F8F4F9F4F08950E94C81239
:1029F00008F48FEF08950E94C812880B990B089570
:102A000097FB072E16F4009407D077FD09D00E949B
:102A1000551507FC05D03EF4909581959F4F08957C
:102A2000709561957F4F0895A1E21A2EAA1BBB1BDA
:102A3000FD010DC0AA1FBB1FEE1FFF1FA217B3078A
:102A4000E407F50720F0A21BB30BE40BF50B661FA0
:102A5000771F881F991F1A9469F760957095809564
:102A600090959B01AC01BD01CF010895052E97FB08
:102A70001EF400940E944D1557FD07D00E941415B6
:102A800007FC03D04EF40C944D15509540953095AD
:102A900021953F4F4F4F5F4F0895909580957095CA
:102AA00061957F4F8F4F9F4F0895AA1BBB1B51E12C
:102AB00007C0AA1FBB1FA617B70710F0A61BB70BAE
:102AC000881F991F5A95A9F780959095BC01CD0153
:102AD0000895EE0FFF1F0590F491E02D0994CF9318
:102AE000DF938230910510F482E090E0E0917B0565
:102AF000F0917C0520E030E0C0E0D0E0309711F1AB
:102B00004081518148175907C0F04817590761F4AF
:102B100082819381209719F09B838A832BC09093A5
:102B20007C0580937B0526C02115310519F04217DD
:102B3000530718F49A01BE01DF01EF010280F3810F
:102B4000E02DDCCF2115310509F1281B390B24308C
:102B5000310590F412968D919C9113976115710532
:102B600021F0FB019383828304C090937C058093C2
:102B70007B05FD01329644C0FD01E20FF31F8193F6
:102B80009193225031092D933C933AC020917905BD
:102B900030917A05232B41F42091030130910401F7
:102BA00030937A052093790520910101309102013B
:102BB0002115310541F42DB73EB7409105015091E3
:102BC0000601241B350BE0917905F0917A05E21797
:102BD000F307A0F42E1B3F0B2817390778F0AC0140
:102BE0004E5F5F4F2417350748F04E0F5F1F50931D
:102BF0007A05409379058193919302C0E0E0F0E07B
:102C0000CF01DF91CF9108950F931F93CF93DF935F
:102C1000009709F48CC0FC01329713821282009154
:102C20007B0510917C050115110581F4208131810E
:102C3000820F931F2091790530917A052817390763
:102C400079F5F0937A05E093790571C0D80140E0F9
:102C500050E0AE17BF0750F412962D913C91139798
:102C6000AD012115310509F1D901F3CF9D01DA013B
:102C70003383228360817181860F971F82179307A8
:102C800069F4EC0128813981260F371F2E5F3F4FF1
:102C9000318320838A819B8193838283452B29F40E
:102CA000F0937C05E0937B0542C01396FC93EE9372
:102CB0001297ED01499159919E01240F351FE2179A
:102CC000F30771F480819181840F951F029611960C
:102CD0009C938E938281938113969C938E931297EB
:102CE000E0E0F0E0D80112968D919C911397009747
:102CF00019F0F8018C01F6CF8D919C9198012E5F0F
:102D00003F4F820F931F2091790530917A05281744
:102D1000390769F4309729F410927C0510927B05ED
:102D200002C01382128210937A0500937905DF9115
:102D3000CF911F910F910895A0E0B0E0E2EAF6E193
:102D40000C94AE13EC01009721F4CB010E946F1597
:102D5000B8C0FC01E60FF71F9C0122503109E217B1
:102D6000F30708F4ACC0D9010D911C911197061717
:102D70001707B0F00530110508F49FC0C80104978B
:102D80008617970708F499C002501109061B170B04
:102D9000019311936D937C93CF010E9404168DC013
:102DA0005B01A01AB10A4C01800E911EA0917B0517
:102DB000B0917C0540E050E0E12CF12C109709F433
:102DC0004AC0A815B905D1F56D907C9011976301A3
:102DD00082E0C80ED11CCA14DB0480F1A3014A1999
:102DE0005B096A0182E0C80ED11C1296BC90129752
:102DF0001396AC91B5E0CB16D10440F0B282A38318
:102E000051834083D9016D937C930AC00E5F1F4F9D
:102E1000C301800F911FF90191838083EB2DFA2F5D
:102E2000E114F10431F0D7011396FC93EE9312975D
:102E300044C0F0937C05E0937B053FC08D919C914D
:102E400011974817590708F4AC017D0112960D90AF
:102E5000BC91A02DB3CF8091790590917A0588150A
:102E60009905E1F446175707C8F480910101909144
:102E70000201009741F48DB79EB740910501509132
:102E80000601841B950BE817F907C8F4F0937A053F
:102E9000E0937905F901718360830FC0CB010E9433
:102EA0006F157C01009759F0A801BE010E946B17B5
:102EB000CE010E940416C70104C0CE0102C080E00A
:102EC00090E0CDB7DEB7EEE00C94CA1381E090E05D
:102ED000F8940C947B17FB01DC0102C001900D9269
:102EE00041505040D8F70895FB01DC0101900D924C
:102EF0000020E1F7089510E0CFEED0E004C0FE011D
:102F00000E9469152196C03FD107C9F7F894FFCFF9
:102F10000100007D05800000000000AD011A0145A0
:102F200001F40176015401680100000000F9042F4A
:102F300003000000009E021A012C039D02F2020A07
:102F4000038502537472740073696D3830302069E0
:102F50006E6974206572726F7221004F4B0041548C
:102F60000D0A0073696D38303020696E6974204F26
:102F70002E4B210047657474696E67207363616C22
:102F800065722E2E2E005765696768747320746110
:102F900072696E672E2E2E006E756C6C5F76616C9A
:102FA000203D20006B675F76616C203D20004175FD
:102FB000746F74756E696E6720646F6E652E004E57
:102FC0006F206D6F726520616464726573736573E1
:102FD0002E00435243206973206E6F742076616C1B
:102FE00069642100202043686970203D20445331EA
:102FF0003853323000202043686970203D2044530C
:10300000313842323000202043686970203D20442E
:103010005331383232004465766963652069732024
:103020006E6F7420612044533138783230206661ED
:103030006D696C79206465766963652E0020204493
:10304000617461203D2000204352433D0020205404
:10305000656D7065726174757265203D2000204356
:10306000656C736975732C20002046616872656E0B
:10307000686569740073656E736F722076616C7534
:1030800065203A2000776569676874732076616C03
:103090007565203A200041542B53415042523D3334
:1030A0002C312C436F6E747970652C475052530D40
:1030B0000A0041542B53415042523D332C312C4194
:1030C000504E2C7777772E61622E6B79697661731B
:1030D0007461722E6E65740D0A0041542B53415079
:1030E00042523D312C310D0A0041542B485454506A
:1030F000494E49540D0A0041542B485454505041F4
:1031000052413D4349442C310D0A0041542B48544F
:103110005450504152413D55524C2C687474703A91
:103120002F2F677072736265652E617A757265778D
:10313000656273697465732E6E65742F6D61696E57
:103140002E7068700D0A0041542B48545450504161
:1031500052413D434F4E54454E542C6170706C6942
:10316000636174696F6E2F782D7777772D666F7234
:103170006D2D75726C656E636F6465640D0A004435
:103180004F574E4C4F41440041542B4854545044E7
:103190004154413D3332302C31303030300D0A0053
:1031A0006B65793D313233267765696768743D0018
:1031B0002674656D70657261747572653D00267662
:1031C0006F6C746167653D002B4854545041435403
:1031D000494F4E3A0041542B4854545041435449AE
:1031E0004F4E3D310D0A0041542B48545450544524
:1031F000524D0D0A0053656E64696E6720646174F8
:103200006120746F2000687474703A2F2F67707299
:10321000736265652E617A7572657765627369742C
:1032200065732E6E65742F6D61696E2E7068700007
:10323000524F4D203D006E616E00696E66006F76E4
:02324000660026
:00000001FF
