:100000000C9460010C943E040C9417040C94280585
:100010000C9428050C9428050C9488010C948801F4
:100020000C9488010C9488010C9488010C9488012C
:100030000C9488010C94A2050C9488010C948801FE
:100040000C94CD030C9488010C94870C0C94610CD7
:100050000C9488010C9488010C9488010C948801FC
:100060000C9488010C94880100407A10F35A00A087
:10007000724E18090010A5D4E80000E87648170071
:1000800000E40B54020000CA9A3B000000E1F505B1
:10009000000080969800000040420F000000A086FB
:1000A00001000000102700000000E803000000002D
:1000B0006400000000000A000000000001000000D1
:1000C00000002C76D888DC674F0823DFC1DFAE59EB
:1000D000E1B1B796E5E3E453C63AE651997696E87E
:1000E000E6C28426EB898C9B62ED407C6FFCEFBC02
:1000F0009C9F40F2BAA56FA5F490055A2AF75C932D
:100100006B6CF9676DC11BFCE0E40D47FEF520E662
:10011000B500D0ED902E0300943577050080841E45
:10012000080000204E0A000000C80C333333330FA0
:10013000986E12831141EF8D2114893BE65516CF3D
:10014000FEE6DB18D1844B381BF77C1D901DA4BB49
:10015000E424203284725E228100C9F124ECA1E5FE
:100160003D2700000000240027002A0000000008AE
:10017000000201000003040700000000000000006E
:10018000005EBCE2613FDD83C29C7E20A3FD1F4177
:100190009DC3217FFCA2401E5F01E3BD3E6082DC67
:1001A000237D9FC1421CFEA0E1BF5D0380DE3C6257
:1001B000BEE0025CDF81633D7C22C09E1D43A1FF47
:1001C0004618FAA427799BC584DA3866E5BB590737
:1001D000DB856739BAE406581947A5FB7826C49A27
:1001E000653BD987045AB8E6A7F91B45C6987A2417
:1001F000F8A6441A99C7257B3A6486D85B05E7B907
:100200008CD2306EEDB3510F4E10F2AC2F7193CDF6
:10021000114FADF3702ECC92D38D6F31B2EC0E50E6
:10022000AFF1134DCE90722C6D33D18F0C52B0EED6
:10023000326C8ED0530DEFB1F0AE4C1291CF2D73C6
:10024000CA947628ABF517490856B4EA6937D58BB6
:100250005709EBB536688AD495CB2977F4AA4816A6
:10026000E9B7550B88D6346A2B7597C94A14F6A896
:10027000742AC896154BA9F7B6E80A54D7896B3586
:1002800000000000250028002B00000000002300D3
:1002900026002900040404040404040402020202E7
:1002A0000202030303030303010204081020408039
:1002B0000102040810200102040810207E151F11FD
:1002C00011241FBECFEFD8E0DEBFCDBF15E0A0E008
:1002D000B1E0E8E3F6E402C005900D92AE38B10754
:1002E000D9F727E0AEE8B5E001C01D92A830B2070B
:1002F000E1F711E0CFE5D1E004C02197FE010E94B3
:100300001F1FCE35D107C9F70E944D110C940F2342
:100310000C940000833081F028F4813099F0823011
:10032000A1F008958730A9F08830B9F08430D1F475
:10033000809180008F7D03C0809180008F778093B3
:100340008000089584B58F7702C084B58F7D84BD09
:1003500008958091B0008F7703C08091B0008F7DA9
:100360008093B00008953FB7F8948091D3059091A1
:10037000D405A091D505B091D60526B5A89B05C09A
:100380002F3F19F00196A11DB11D3FBFBA2FA92F14
:10039000982F8827820F911DA11DB11DBC01CD0191
:1003A00042E0660F771F881F991F4A95D1F708957D
:1003B000089520918106309182062817390771F43B
:1003C00090917F0680918006981741F0E0917F061A
:1003D000F0E0E257FA4F808190E008958FEF9FEFB1
:1003E000089508951F93CF93DF93DC015C962D91C0
:1003F0003C915D972115310539F481E090E0139629
:100400009C938E9312973DC05196ED91FC9152971B
:1004100050969C915097892F80951FB75E964C916E
:100420005E9741FB772770F941FD6095F894408114
:10043000772311F0492B01C048234083E90121971C
:10044000F1F748E0508160FF02C0592B01C05823EA
:100450005083E9012197F1F76695415099F7772389
:1004600021F090818923808303C08081982B908321
:100470001FBF5C968D919C915D970197F1F721E0EC
:1004800030E0C901DF91CF911F910895209181063D
:10049000309182062817390771F4809180062091E7
:1004A0007F0690E0805C9F4F821B910960E470E0C2
:1004B0000E94D31D089580E090E008952091810668
:1004C0003091820628173907B9F490917F06809100
:1004D0008006981789F0E0917F06F0E0E257FA4F26
:1004E000808120917F0630E02F5F3F4F2F733327AD
:1004F00020937F0690E008958FEF9FEF0895089571
:1005000080E090E0089581E08093E00508950C94E8
:100510002418FC0101900020E9F73197AF01481B36
:10052000590BFB0101900020E9F73197E61BF70B0F
:10053000E417F50728F00E94162021E0892B09F026
:1005400020E0822F0895CF92DF92EF92FF920F93D7
:100550001F93CF93DF937C01FC01C480D58003E817
:1005600016E0C0E0D0E0F801848195818C159D05EE
:1005700031F580819181F70160817181009719F0D7
:1005800061157105C1F46115710559F0C114D104EB
:10059000F9F0FB01208130E088279927821B930B1B
:1005A0000CC00097A9F0C114D10491F0FC01908116
:1005B000892F90E002C00E940620892B49F02196E5
:1005C0000A5F1F4FC530D10571F68FEF9FEF01C055
:1005D000CE01DF91CF911F910F91FF90EF90DF90AF
:1005E000CF900895CF93DF93282F30E0F901E4599D
:1005F000FE4F8491F901E855FD4FD491F901EC5675
:10060000FD4FC491CC2391F081110E948A01EC2FFF
:10061000F0E0EE0FFF1FE657FD4FA591B491EC916E
:10062000ED2381E090E021F480E002C080E090E0E2
:10063000DF91CF9108951F93CF93DF93282F30E060
:10064000F901E459FE4F8491F901E855FD4FD49129
:10065000F901EC56FD4FC491CC23C9F0162F81113E
:100660000E948A01EC2FF0E0EE0FFF1FE058FD4FD3
:10067000A591B4918FB7F894111105C09C91ED2FFD
:10068000E095E92302C0EC91ED2BEC938FBFDF9155
:10069000CF911F910895CF93DF9390E0FC01E8552F
:1006A000FD4F2491FC01EC56FD4F8491882361F1AC
:1006B00090E0880F991FFC01EE59FE4FC591D4912F
:1006C000FC01E058FD4FA591B491611109C09FB79D
:1006D000F8948881209582238883EC912E230BC087
:1006E000623061F49FB7F8943881822F809583231C
:1006F0008883EC912E2B2C939FBF06C08FB7F89464
:10070000E8812E2B28838FBFDF91CF9108958F92A0
:100710009F92AF92BF92CF92DF92EF92FF926B01C6
:100720007C010E94B3014B015C01C114D104E104BE
:10073000F104F1F00E94B301DC01CB0188199909A1
:10074000AA09BB09883E9340A105B10570F321E0D9
:10075000C21AD108E108F10888EE880E83E0981EDD
:10076000A11CB11CC114D104E104F10419F7DDCFBF
:10077000FF90EF90DF90CF90BF90AF909F908F90C1
:1007800008952FB7F8946091CF057091D0058091AE
:10079000D1059091D2052FBF08951F920F920FB6E9
:1007A0000F9211242F933F938F939F93AF93BF93F7
:1007B0008091CF059091D005A091D105B091D2053F
:1007C0003091CE0523E0230F2D3720F40196A11D93
:1007D000B11D05C026E8230F0296A11DB11D20936F
:1007E000CE058093CF059093D005A093D105B0930B
:1007F000D2058091D3059091D405A091D505B091F3
:10080000D6050196A11DB11D8093D3059093D40503
:10081000A093D505B093D605BF91AF919F918F91CD
:100820003F912F910F900FBE0F901F9018951F9220
:100830000F920FB60F9211242F933F934F935F9314
:100840006F937F938F939F93AF93BF93EF93FF9398
:10085000E0910901F0910A010995FF91EF91BF9193
:10086000AF919F918F917F916F915F914F913F9148
:100870002F910F900FBE0F901F9018951F920F92FF
:100880000FB60F9211242F933F934F935F936F9363
:100890007F938F939F93AF93BF93EF93FF93E091D9
:1008A0000701F09108010995FF91EF91BF91AF9178
:1008B0009F918F917F916F915F914F913F912F9178
:1008C0000F900FBE0F901F9018954F925F926F92EE
:1008D0007F928F929F92AF92BF92CF92DF92EF92D0
:1008E000FF920F931F93CF93DF938C017B01EA015B
:1008F000FB0101900020E9F731976F01C61AD70A72
:100900000E94C1032B013C0188EE93E0C89F400187
:10091000C99F900CD89F900C1124A12CB12CC0E041
:10092000D0E00E5F1F4FC8010E944602892B81F064
:10093000C8010E945E02F701EC0FFD1F9081981321
:1009400002C0219602C0C0E0D0E0CC15DD0581F0E8
:100950000E94C103DC01CB0184199509A609B709DE
:1009600088169906AA06BB06F0F68FEF9FEF09C01E
:10097000C8010E944602009721F0C8010E945E0251
:10098000F7CFDF91CF911F910F91FF90EF90DF9004
:10099000CF90BF90AF909F908F907F906F905F901F
:1009A0004F900895DF92EF92FF920F931F93CF9392
:1009B000DF93EC018B810E94F202892BD9F76A81C7
:1009C0008B810E94B70E082F6A818B810E94B70E1F
:1009D000182F6A818B810E94B70ED82EE12CF12C42
:1009E0002C8130E0E216F30660F461E08A810E9417
:1009F0001B0360E08A810E941B032FEFE21AF20AB8
:100A0000EFCF812F90E0A0E0B0E0BA2FA92F982F70
:100A10008827A02BAC01BD014D29802F880F880BA2
:100A200090E0A0E0B0E0B82FAA27992788278A0194
:100A30009B01082B192B2A2B3B2BC901B801DF91F5
:100A4000CF911F910F91FF90EF90DF90089508953F
:100A50001F920F920FB60F9211242F933F934F9333
:100A60005F936F937F938F939F93AF93BF93EF9316
:100A7000FF93E0918106F0918206309709F451C00E
:100A8000968DA685B785858591FF04C09C918923A5
:100A900029F447C09C91892309F043C0A389B489F4
:100AA0009C918589809589238C9386899789019764
:100AB000F1F7608D718DA685B785558538E020E00A
:100AC000CB010197F1F7822F90E095958795282F1C
:100AD0004C91452309F02068315091F7868D81FDB6
:100AE00020958091800690E001968F739927309130
:100AF0007F06381749F0A0918006B0E0A257BA4FA0
:100B00002C938093800603C0868D8160868F828DB2
:100B1000938D0197F1F7A389B4899C918589892BDD
:100B20008C93FF91EF91BF91AF919F918F917F91A6
:100B30006F915F914F913F912F910F900FBE0F904A
:100B40001F9018951F920F920FB60F9211242F929B
:100B50003F924F925F926F927F928F929F92AF924D
:100B6000BF92CF92DF92EF92FF920F931F932F933A
:100B70003F934F935F936F937F938F939F93AF9325
:100B8000BF93EF93FF93CF93DF93CDB7DEB7289753
:100B9000DEBFCDBF8CED9BE09093850080938400F9
:100BA0002091D7053091D8054091D9055091DA05AB
:100BB0006091DB057091DC058091DD059091DE058B
:100BC000A1E00E94F31E29833A834B835C836887EC
:100BD0007F838D839E832093D7053093D8054093E0
:100BE000D9055093DA056093DB057093DC05FD8130
:100BF000F093DD059093DE0560910501709106018B
:100C00001B01412C512C612C712C4301809104015A
:100C1000883691F08D3649F08436D1F480E090E04A
:100C200020E831E540E050E00DC080E090E02CE3AA
:100C300030E040E050E006C080E090E020E13EE09F
:100C400040E050E00E94281E19012A013B014C019E
:100C5000510162017301840129813A814B815C81D8
:100C600068857F818D819E810E94531EA0E00E9435
:100C7000FF1E19F481E08093DF0528960FB6F894E3
:100C8000DEBF0FBECDBFDF91CF91FF91EF91BF913E
:100C9000AF919F918F917F916F915F914F913F9114
:100CA0002F911F910F91FF90EF90DF90CF90BF9009
:100CB000AF909F908F907F906F905F904F903F90FC
:100CC0002F900F900FBE0F901F9018956115710512
:100CD00079F0FB0101900020E9F73197AF01461B45
:100CE000570BDC01ED91FC910280F381E02D09941A
:100CF00080E090E00895EF92FF920F931F93CF93BF
:100D0000DF93EC018A01790102960E946606A70131
:100D1000B801CE01DF91CF911F910F91FF90EF901D
:100D20000C9465042F923F924F925F926F927F9244
:100D30008F929F92AF92BF92CF92DF92EF92FF92EB
:100D40000F931F93CF93DF93CDB7DEB76B970FB69B
:100D5000F894DEBF0FBECDBF9D8B8C8B8FE190E0F2
:100D60000E948F178C01CC24C394D12C18012EE142
:100D7000220E311C580187E0A80EB11CD80118962C
:100D8000BF8BAE8B23E8822E22E0922EAC89BD89E8
:100D90008D919C918C159D0508F47BC38EE090E0AD
:100DA0000E948F177C014AE0B601CE0101960E9495
:100DB00016106FE371E0CE0107960E944210BE014B
:100DC0006F5F7F4FCE0107960E94960F61E372E03E
:100DD0000E947D0FFC016081718125E030E048E4D4
:100DE00051E08DEB96E00E947B063C01CE01079618
:100DF0000E94E10FCE0101960E94E10F672809F0E1
:100E000044C08FEB96E00E945E028297D1F78FEB91
:100E100096E00E945E028297D1F78FEB96E00E94E7
:100E20005E028297D1F727013701FDE06F0E711C3A
:100E30000E94030F97FF04C0D7011D961C920AC0A1
:100E400082329105C9F3F20181932F01E615F7056E
:100E500079F7F2CF8FEB96E00E945E020A97D1F706
:100E600038010E94030F97FF06C0D8015E961C92BE
:100E7000B1E0BB8B0BC08A309105B9F3F3018193CC
:100E80003F01E215F30569F7F0CF1B8AB7018091A6
:100E9000A1069091A2060E9406203C01E114F104F3
:100EA00019F0C7010E942418672809F0DCC263E327
:100EB00072E0CE010D960E944210B8018FE491E0DD
:100EC0000E948902882319F061E571E007C2B80128
:100ED00085E893E00E948902882329F01092E105B9
:100EE00062EB71E0FBC1B8018DEC91E00E948902D8
:100EF000882321F081E08093E105F4C1B80183EDFE
:100F000091E00E948902882309F456C0D8011796FF
:100F10008C9117978D3309F04CC018968C911897C7
:100F200090ED980F923008F044C0082E000C990BF9
:100F3000C09716966C916033D1F49093030180931F
:100F40000201892B41F4E89888ED91E09093080123
:100F500080930701C7C19092080180920701809198
:100F600069008C7F826080936900E89ABBC161331D
:100F7000D1F49093010180930001892B41F4E99809
:100F800088ED91E090930A0180930901ABC19092A2
:100F90000A018092090180916900837F88608093B3
:100FA0006900E99A9FC1062E000C770B66527E4FAE
:100FB00095C169EE71E092C1B8018EE792E00E949E
:100FC0008902882309F451C03501F501E12CF12C87
:100FD0002191BFEFEB1AFB0A2D3651F0283641F074
:100FE000243631F0233721F088E0E816F10481F748
:100FF000C70101962B8F0E948F172C01FC01E80E70
:10100000F91E2B8DEE15FF0529F0D3018D913D01C1
:101010008193F8CF1082C2012B8F0E94BC187C01F3
:101020002B8D4114510421F0C2010E9424182B8DF4
:10103000B4E6EB16F10438F0E3E6F0E0F0930601D5
:10104000E093050104C0F0920601E09205012D36FF
:1010500031F0283621F0243611F0233719F420938B
:10106000040140C166EF71E039C1B80183E092E04C
:101070000E948902882391F16E897F89CE010796AB
:101080000E94421063E372E0CE0101960E9442107A
:10109000CE0101960E94A3027C01CE0101960E941E
:1010A000E10FFFEFEF16FF0609F411C286E08E9DF7
:1010B00090018F9D300D1124C9018D57994F6F817B
:1010C00078856115710529F04B855C850E94A90F13
:1010D00002C00E946B0FCE01079689C0B8018CE058
:1010E00092E00E9489028823E1F0B501CE010196C9
:1010F0000E944210CE0101960E94A3028F3F2FEF63
:10110000920709F4EBC146E0489F9001499F300DDA
:10111000112463E372E0C9018D57994F0E94CA0FF1
:1011200064C0B80184E192E00E948902882309F436
:1011300061C02FE030E04DE152E060E272E08DEB03
:1011400096E00E947B06892B09F0D4C145E050E06F
:1011500064E372E08DEB96E00E946504892B09F050
:10116000C9C18FEB96E00E945E028297D1F763E3DC
:1011700072E0CE0101960E9442100E94030F97FD7B
:101180000FC08A30910561F08F83188641E050E0EE
:10119000BE01695F7F4FCE0101960E943D0FEDCFEA
:1011A0008D859E85009779F069817A816115710539
:1011B00041F04F8558892D813E814217530708F031
:1011C00092C10E94241889819A819E878D878B8184
:1011D0009C81988B8F878D819E819A8B898B1A82B7
:1011E00019821C821B821E821D82CE0101960E94E2
:1011F000E10F78C0B8018CEA91E00E94890288234F
:1012000009F46AC08EE190E09A838983A4E0B0E09B
:10121000B887AF83BE016F5F7F4FCE0107960E94F4
:10122000080D82E30E94DB0E0E947F1B0E949D1D21
:101230006093AC067093AD068093AE069093AF06B4
:1012400082E30E94DB0E4090AC065090AD066090A9
:10125000AE067090AF0664197509860997090E9459
:101260007F1B9B01AC01EEE1F0E0FA83E98381E0B2
:1012700090E098878F83BE016F5F7F4FCE01079606
:101280002B8F388F498F5A8F0E94080D82E30E945E
:10129000DB0E4090AC065090AD066090AE067090AC
:1012A000AF0664197509860997090E947F1B2B8D6B
:1012B000388D498D5A8D0E94BE1C6093B006709384
:1012C000B1068093B2069093B30682E090E00E944C
:1012D000E10C6BE372E002C062E472E0CE010D96B5
:1012E0000E94CA0F89899A89892B49F06D857E856C
:1012F0008091A1069091A2060E94A710A8C025E0A7
:1013000030E04DE152E062E572E08DEB96E00E9444
:101310007B06892B09F097C064EF71E080E090E0D4
:101320000E9487036EE572E0CE0101960E94421092
:1013300061EA76E0CE0101960E94960F60E372E0CA
:101340000E947D0FDC016D917C9125E030E048E644
:1013500052E08DEB96E00E947B067C01CE01019667
:101360000E94E10FEF2809F06BC068EE73E080E0A7
:1013700090E00E9487036AE672E08FEB96E00E949D
:10138000660660910201605D8FEB96E00E94F201BB
:1013900063E772E08FEB96E00E94660660910001C1
:1013A000605D8FEB96E00E94F2016DE772E08FEBDB
:1013B00096E00E946606409105015091060160E0AA
:1013C00070E02AE08FEB96E00E94571060910401D4
:1013D0008FEB96E00E94A01066E872E08FEB96E03B
:1013E0000E94660683E8E82E86E0F82EF7018481E5
:1013F0009581892B59F0608171818FEB96E00E9475
:1014000066066AE08FEB96E00E94F201F6E0EF0ECE
:10141000F11C21EAE21626E0F20641F764EF71E0E2
:1014200080E090E00E9487036AE18FEB96E00E94E3
:10143000A01061E372E08FEB96E00E94660607C0A1
:1014400081E992E002C08CE992E00E94360D4FE003
:1014500050E067EA72E08DEB96E00E946504CE01F1
:101460000D960E94E10FF8011192E215F305E1F7E4
:101470008B89882351F025E030E04DE152E06EEA9F
:1014800072E08DEB96E00E947B069FEFC91AD90AA5
:101490007DCC0115110589F1C8016B960FB6F89442
:1014A000DEBF0FBECDBFDF91CF911F910F91FF9097
:1014B000EF90DF90CF90BF90AF909F908F907F90F4
:1014C0006F905F904F903F902F900C9424186CEB8E
:1014D00072E0CE010D960E94CA0FFDCD63ED72E061
:1014E000CE010D961BCE0E940F208D819E819A8B7E
:1014F000898B79CE69EE72E0F1CE6B960FB6F894D7
:10150000DEBF0FBECDBFDF91CF911F910F91FF9036
:10151000EF90DF90CF90BF90AF909F908F907F9093
:101520006F905F904F903F902F9008958F929F9271
:10153000AF92BF92CF92DF92EF92FF920F931F93E1
:10154000CF93DF93CDB7DEB7A0970FB6F894DEBF89
:101550000FBECDBF8BEF92E00E94360D60E080E1C0
:101560000E941B0384E093E00E94360D6E0121E28D
:10157000C20ED11C2FE030E047E153E06CE173E094
:101580008DEB96E00E947B06892B29F080E193E0A9
:101590000E94360DEFCF2FE030E047E153E061E2EB
:1015A00073E08DEB96E00E947B06892B79F7FE01B4
:1015B00031961192EC15FD05E1F783E0E82EF12C50
:1015C0006DE273E08FEB96E00E9466060E94C10315
:1015D0004B015C0100E010E08FEB96E00E944602B8
:1015E000892BF9F08FEB96E00E945E028D3011F0AE
:1015F0008A3009F484E298012F5F3F4FE1E0F0E088
:10160000EC0FFD1FE00FF11F8083203231053CF00D
:1016100064EF71E080E090E00E94870313C08901CD
:10162000DBCF00321105A4F70E94C103DC01CB011E
:1016300088199909AA09BB0989389341A105B105FF
:1016400058F2E6CF8FEB96E00E9446028C01892B80
:1016500029F08FEB96E00E945E02F4CF68E373E01E
:10166000CE0101960E942420892B69F46CE271E07E
:1016700080E090E00E94870381E0E81AF10809F019
:101680009FCF0FEF1FEF012B09F080CFA0960FB671
:10169000F894DEBF0FBECDBFDF91CF911F910F91A8
:1016A000FF90EF90DF90CF90BF90AF909F908F9082
:1016B0000895CF92DF92EF92FF920F931F93CF93F3
:1016C000DF936C017A018B01C0E0D0E0CE15DF051D
:1016D00089F0D8016D918D01D601ED91FC910190B9
:1016E000F081E02DC6010995892B11F47E0102C01D
:1016F0002196ECCFC701DF91CF911F910F91FF9001
:10170000EF90DF90CF900895FC01538D448D252FED
:1017100030E0842F90E0821B930B541710F0CF968B
:10172000089501970895FC01918D828D981761F0BD
:10173000828DDF01A80FB11D5D968C91928D9F5F08
:101740009F73928F90E008958FEF9FEF0895FC01B3
:10175000918D828D981731F0828DE80FF11D858D66
:1017600090E008958FEF9FEF0895FC01918D228DF9
:10177000892F90E0805C9F4F821B91098F7399277E
:10178000089582EE95E00E94B50B21E0892B09F4C3
:1017900020E0822F0895FC01848DDF01A80FB11D88
:1017A000A35ABF4F2C91848D90E001968F73992797
:1017B000848FA689B7892C93A089B1898C91806484
:1017C0008C93938D848D981306C00288F389E02D45
:1017D00080818F7D80830895EF92FF920F931F93F6
:1017E000CF93DF93EC0181E0888F9B8D8C8D9813D4
:1017F00005C0E889F989808185FD24C0F62E0B8D0E
:1018000010E00F5F1F4F0F731127E02E8C8DE81231
:101810000CC00FB607FCFACFE889F989808185FFF3
:10182000F5CFCE010E94CB0BF1CF8B8DFE01E80FDF
:10183000F11DE35AFF4FF0820B8FEA89FB8980810B
:10184000806207C0EE89FF896083E889F989808119
:101850008064808381E090E0DF91CF911F910F91B0
:10186000FF90EF900895CF93DF93EC01888D88234C
:10187000C9F0EA89FB89808185FD05C0A889B989FD
:101880008C9186FD0FC00FB607FCF5CF808185FFD8
:10189000F2CFA889B9898C9185FFEDCFCE010E9446
:1018A000CB0BE7CFDF91CF91089580E090E0892BBB
:1018B00029F00E94C10B81110C94000008950E9430
:1018C000F81F1F920F920FB60F9211242F933F9380
:1018D0004F935F936F937F938F939F93AF93BF9338
:1018E000EF93FF9382EE95E00E94CB0BFF91EF9177
:1018F000BF91AF919F918F917F916F915F914F9128
:101900003F912F910F900FBE0F901F9018951F922F
:101910000F920FB60F9211242F938F939F93EF93F3
:10192000FF93E091F205F091F3058081E091F805D5
:10193000F091F90582FD12C090818091FB058F5FC7
:101940008F732091FC05821751F0E091FB05F0E0C8
:10195000EE51FA4F958F8093FB0501C08081FF9176
:10196000EF919F918F912F910F900FBE0F901F902D
:10197000189508950F931F93CF93DF93EC018881FF
:101980009981009729F02A813B812617370788F42F
:101990008B016F5F7F4F0E942E1F009761F099832C
:1019A00088831B830A832C813D81232B11F4FC0146
:1019B000108281E001C080E0DF91CF911F910F91F3
:1019C0000895CF93DF93BC017695679576956795DB
:1019D00021E062276170C4EBD6E06E839C013695EE
:1019E000279541E0242721702F838170992721E0DA
:1019F00082278170888788810E941B036F818A817A
:101A00000E941B0368858C81DF91CF910C941B038E
:101A1000EF92FF920F931F93CF93DF937C018B0183
:101A2000C0E0D0E0F80120813181C217D307B8F4BB
:101A300080E090E00E94E10C62E470E080E090E0E1
:101A40000E948703F701808191810E94E10C62E48A
:101A500070E080E090E00E9487032196E3CFDF9161
:101A6000CF911F910F91FF90EF900895CF93DF9347
:101A7000BC0182EE95E00E946606EC0161E372E033
:101A800082EE95E00E9466068C0F9D1FDF91CF913C
:101A900008958091F606E091F706F091F806F89423
:101AA0009181982B91832281982F909529232283CD
:101AB000A7E0B0E01197F1F7218192239183A3E28F
:101AC000B0E01197F1F790817894EFECF0E0319766
:101AD000F1F7982381E009F480E008959091F606EB
:101AE000E091F706F091F806392F309580FF13C08A
:101AF000F8942281832F822382838181892B8183A1
:101B0000A3E2B0E01197F1F78281982B9283789449
:101B100087ED90E012C0F8942281832F8223828384
:101B20008181892B8183AFEFB0E01197F1F782813A
:101B3000982B928378948FE090E00197F1F70895C5
:101B4000EF92FF920F931F93CF93DF931F92CDB726
:101B5000DEB7082F88E0E82EF12C11E081E0912F0C
:101B6000902309F480E069830E946E0D110F81E0DB
:101B7000E81AF1086981E114F10481F7611113C0D9
:101B8000F894E091F706F091F80691818091F606BD
:101B9000809598239183E091F706F091F806928161
:101BA0008923828378940F90DF91CF911F910F91B9
:101BB000FF90EF900895EF92FF920F931F93CF93B2
:101BC000DF931F92CDB7DEB7182F60E085E59983CC
:101BD0000E94A00DE12E9981F92E8701085F1F4F09
:101BE00060E0F70181917F010E94A00DE016F106EF
:101BF000B9F70F90DF91CF911F910F91FF90EF9068
:101C000008959091F606E091F706F091F806F894A1
:101C10008181292F20958223818378948DE743E069
:101C200050E0815021F1DA011197F1F73081392329
:101C3000C1F3F8948281822382838181892B8183FD
:101C40007894ABE7B7E01197F1F7F89481812823F6
:101C50002183A3E1B1E01197F1F78081982381E01E
:101C600009F080E07894E3E6F6E03197F1F7089523
:101C70008F929F92AF92BF92CF92DF92EF92FF929C
:101C80000F931F93CF93DF93CDB7DEB768970FB64F
:101C9000F894DEBF0FBECDBF03E816E0E12CF12CB7
:101CA00086E6C82E85E0D82ECE0101965C01F801AB
:101CB00084819581892B09F43FC09080818025E043
:101CC00030E04DE152E065E575E08DEB96E00E9475
:101CD0007B06892B29F081E695E00E94360D19C01C
:101CE00068EE73E080E090E00E9487038F929F92FD
:101CF000DF92CF92BF92AF920E946E20B5018FEB20
:101D000096E00E9466060F900F900F900F900F9034
:101D10000F9040E355E761E775E08DEB96E00E9498
:101D20006504892B19F4FFEFEF1AFF0A68E775E0E5
:101D30008FEB96E00E9466060A5F1F4F86E0013A2D
:101D4000180709F0B4CFC70168960FB6F894DEBF44
:101D50000FBECDBFDF91CF911F910F91FF90EF90FC
:101D6000DF90CF90BF90AF909F908F900895FF929B
:101D70000F931F93CF93DF93F82E062FC7E0D0E089
:101D800010E061E0802F0E941B038F2D0E94F20261
:101D90000C2E01C0880F0A94EAF7182B60E0802F00
:101DA0000E941B03219768F7812FDF91CF911F912C
:101DB0000F91FF900895CF92DF92EF92FF92CF9311
:101DC000DF93C82FD0E0C12CD12C7601DC1751F065
:101DD00087EA96E00E94D204C60ED71EE81EF91EBE
:101DE000DF5FF4CF2D2F30E040E050E0C701B601B7
:101DF0000E94091ECA01B901DF91CF91FF90EF90B7
:101E0000DF90CF9008950F931F930E94C1036093BA
:101E1000C7067093C8068093C9069093CA06E091DE
:101E2000BF06F091C0060284F385E02D8FEB96E0AB
:101E3000099597FF1FC00E94C1030091C70610912A
:101E4000C8062091C9063091CA06DC01CB01801B6F
:101E5000910BA20BB30B0091C3061091C406209105
:101E6000C5063091C60680179107A207B307B8F2DE
:101E70008FEF9FEF1F910F910895EF92FF920F93B5
:101E80001F93CF93DF93FC01248135816115710588
:101E900011F480E019C041155105A9F07B01EC0156
:101EA0008A01020F131FB8010E94BA0C882389F31C
:101EB000288139818C819D81B701820F931F0E94F7
:101EC0000F201D830C8381E0DF91CF911F910F9133
:101ED000FF90EF900895CF93DF93EC018881998173
:101EE000009711F00E942418198218821D821C820A
:101EF0001B821A82DF91CF910895CF93DF93EC017B
:101F00006115710561F0FB0101900020E9F731973F
:101F1000AF01461B570B0E943D0F811103C0CE013C
:101F20000E946B0FCE01DF91CF910895CF93DF9385
:101F3000EC01FB0144815581608171810E943D0F5C
:101F4000811103C0CE010E946B0FCE01DF91CF91B2
:101F50000895EF92FF920F931F93CF93DF93EC01BD
:101F60007B018A01BA010E94BA0C811104C0CE0122
:101F70000E946B0F07C01D830C83B7018881998174
:101F80000E940F20CE01DF91CF911F910F91FF9002
:101F9000EF900895CF93DF93EC016115710559F02F
:101FA000FB0101900020E9F73197AF01461B570B69
:101FB0000E94A90F02C00E946B0FCE01DF91CF914A
:101FC0000895FC01808191810C942418EF92FF9276
:101FD0000F931F93CF93DF93CDB7DEB7A1970FB6C3
:101FE000F894DEBF0FBECDBF7C01CB01BA01F70173
:101FF00011821082138212821582148242E0420FF3
:102000008E010F5F1F4F0E946F17BC01C7010E9416
:10201000CA0FA1960FB6F894DEBF0FBECDBFDF91F9
:10202000CF911F910F91FF90EF9008950F931F9301
:10203000CF93DF93CDB7DEB761970FB6F894DEBFCD
:102040000FBECDBF8C01CB01F8011182108213822B
:1020500012821582148250E0BE016F5F7F4F0E9492
:10206000E218BE016F5F7F4FC8010E94CA0F6196E0
:102070000FB6F894DEBF0FBECDBFDF91CF911F9199
:102080000F910895FC011182108213821282158231
:1020900014826115710551F0FB0101900020E9F7F0
:1020A0003197AF01461B570B0C94A90F08954F921F
:1020B0005F926F927F92EF92FF920F931F93CF9355
:1020C000DF93CDB7DEB7A1970FB6F894DEBF0FBE92
:1020D000CDBF7C01FA01CB0119A2223008F42AE01D
:1020E0008E010F5D1F4F422E512C612C712CBF01B0
:1020F000A30192010E94E71DF901CA0101501109D3
:102100006A3014F4605D01C0695CD8016C93232BC4
:10211000242B252B61F7B801C7010E946606A19602
:102120000FB6F894DEBF0FBECDBFDF91CF911F91E8
:102130000F91FF90EF907F906F905F904F90089578
:10214000DC01ED91FC910190F081E02D0994EF927A
:10215000FF920F931F93CF93DF93CDB7DEB7A09776
:102160000FB6F894DEBF0FBECDBF182F092F7B012D
:1021700025E030E04DE152E062E572E08DEB96E063
:102180000E947B06892B19F08CE992E029C064EF4C
:1021900071E080E090E00E9487030F931F938EE729
:1021A00095E09F938F931F9280E28F938E010F5F34
:1021B0001F4F1F930F930E943E2025E030E048E61A
:1021C00052E0B8018DEB96E00E947B068C010FB6C1
:1021D000F894DEBF0FBECDBF892B39F081E992E0C4
:1021E0000E94360D0FEF1FEF1CC068EE73E080E019
:1021F00090E00E948703B7018FEB96E00E9466068D
:1022000064EF71E080E090E00E9487036AE18FEB69
:1022100096E00E94A01061E372E08FEB96E00E94CE
:102220006606C801A0960FB6F894DEBF0FBECDBFFC
:10223000DF91CF911F910F91FF90EF900895CF9371
:10224000DF93C1EAD6E02697CE010E94E10F86E037
:10225000C338D807C1F781EA96E00E94E10F81E315
:1022600091E09093C0068093BF0680918106909183
:1022700082068F5B964071F4E091D206F091D3060E
:1022800090818091D4068095892380831092820664
:1022900010928106DF91CF910895CF93DF93CDB750
:1022A000DEB7A7970FB6F894DEBF0FBECDBF789408
:1022B00084B5826084BD84B5816084BD85B582604B
:1022C00085BD85B5816085BD80916E0081608093FC
:1022D0006E00109281008091810082608093810065
:1022E0008091810081608093810080918000816075
:1022F000809380008091B10084608093B1008091D0
:10230000B00081608093B00080917A0084608093F7
:102310007A0080917A00826080937A0080917A00BE
:10232000816080937A0080917A00806880937A003F
:102330001092C10081E090E00E94E10CE091F20572
:10234000F091F30582E08083E091EE05F091EF05D6
:102350001082E091F005F091F1058FEC80831092EE
:10236000FA05E091F605F091F70586E08083E091AB
:10237000F405F091F505808180618083E091F4059A
:10238000F091F505808188608083E091F405F091FB
:10239000F505808180688083E091F405F091F50572
:1023A00080818F7D808385E493E00E94360D61E01B
:1023B00080E10E944B0361E08FE00E944B0361E0EB
:1023C00085E00E944B0362E082E00E944B0362E0E2
:1023D00083E00E944B0361E085E00E944B0360E0D4
:1023E00085E00E941B0360E080E10E941B0361E026
:1023F0008FE00E941B0360E27EE480E090E00E9498
:1024000087038AE493E00E94360D61E080E10E9438
:102410001B038AE493E00E94360D68EE73E080E0CF
:1024200090E00E94870383E593E00E94360D0E94AE
:10243000960A83E593E00E94360D8BE593E00E94B7
:10244000360D23E832E03093080120930701809194
:1024500069008C7F826080936900E89A30930A015A
:102460002093090180916900837F886080936900CF
:10247000E99A85E693E00E94360D10928000109252
:1024800081008CED9BE09093850080938400809187
:10249000810084608093810080916F0081608093CF
:1024A0006F00789461E085E00E941B0380E090E07B
:1024B0000E94E10C64E670E080E090E00E948703F7
:1024C0008E010F5F1F4F1E018DE0280E311C3E0153
:1024D000E5E16E0E711CF7E0F20DFDA389E0800FBF
:1024E0008EA38091E105882361F081E090E09A83DA
:1024F0008983C8010E94920685E090E00E94E10C69
:102500000CC18091E005882309F440C085E793E081
:102510000E94360D84E090E00E94E10C0E94960A31
:1025200060E873E0C8010E94421043E8E42E46E0F0
:10253000F42EF70184819581892B61F069817A817C
:10254000808191810E94A71068EE73E080E090E0A6
:102550000E948703F6E0EF0EF11C81EAE81686E0A0
:10256000F80639F7C8010E94E10F0E94380E0E9458
:10257000380E892B29F487E893E00E94360DF7CFB7
:102580001092E00581E08093E105C7C08091DF05EE
:10259000882309F46FC088E993E00E94360D87E034
:1025A00090E00E94E10C0E94960A82EA93E00E9469
:1025B000360D8091030781118DC20E94010E882380
:1025C00009F488C260E080EF0E94A00DEE24E3943D
:1025D000D12CC12CFF24F3940E94490D8FA30E949B
:1025E000490D9FA1913019F48130C9F437C02D2DC8
:1025F00030E098131EC080910107F81638F4F901F5
:10260000EA50F94F83818E2151F402C0F81639F057
:1026100090E0E8E0EF1560F0F092020709C0ED2DC0
:10262000F0E0EA50F94F83818E29838391E009C05D
:10263000CF2CF901EA50F94F23818E2D809582230A
:102640008383892F0E946E0DF394EE0C19F4D394BA
:10265000EE24E394F7E0FD1508F0BECF80E48F157B
:1026600008F038C2C0920107C1105AC081E08093BF
:10267000030756C06FE275E082EE95E00E946606A1
:102680008091040790910507009711F488E097E086
:102690006801C81AD90A0D2C000CEE08FF08F7FED5
:1026A0000EC06DE282EE95E00E94A01044275527EF
:1026B000BA014C195D096E097F092AE003C02AE0BE
:1026C000B701A60182EE95E00E94571061E372E027
:1026D00082EE95E00E9466064091D7055091D8059C
:1026E0006091D9057091DA052AE082EE95E00E94AA
:1026F000571061E372E082EE95E00E94660661E3A6
:1027000072E082EE95E00E94660680E090E00E9412
:10271000E10C61E080E10E941B030E94550CE1CEB8
:102720008091F906882309F4D5C1A9EFB6E0F1013B
:102730008D918193E615F705D9F7D101E0E0FDA170
:10274000FA1739F08D91E827F0E0E058FE4FE49158
:10275000F6CF8C89E8136DC08D85823241F08832C6
:1027600031F0803109F065C0FF24F39401C0F12CF1
:102770000E94010EC1010E94DB0D61E084E40E9411
:10278000A00D68EE73E080E090E00E9487030E9455
:10279000010EC1010E94DB0D60E08EEB0E94A00DD6
:1027A000680138E0A32EB12C99249394E12C0E9467
:1027B000490D8111E928990C81E0A81AB108B9F7EF
:1027C000F601E1926F01FEA1FC11EBCF6A8170E08E
:1027D000762F66278981682BFF2089F093E0660FAA
:1027E000771F9A95E1F788858031A9F42F818CE0D5
:1027F00090E0821B9109607F680F791F0CC08D816A
:10280000807611F4687F07C0803211F46C7F03C0BA
:10281000803409F46E7F072E000C880B990B0E9400
:102820007F1B20E030E040E85DE30E94BA1B4B01D3
:102830005C0184E10E94DB0EC090AC06D090AD0636
:10284000E090AE06F090AF066C197D098E099F09E5
:102850000E947F1B2091B0063091B1064091B206D4
:102860005091B3060E942B1D69A37AA38BA39CA34E
:1028700084E1482E512CC12CD12C760180E4809328
:102880007C0080917A00806480937A0080917A0045
:1028900086FDFCCF609178008091790070E0782B04
:1028A000072E000C880B990B0E947F1B24E13CE54E
:1028B0004CE25CE30E94BA1B9B01AC01C701B6016C
:1028C0000E94BF1C6B017C01E1E04E1A5108B1F679
:1028D00020E030E040EA51E40E942B1D6B017C01B6
:1028E00022E0AB01BC01C8010E94E60F22E049A131
:1028F0005AA16BA17CA1C1010E94E60F22E0B501A3
:10290000A401C3010E94E60F6AEA73E0CE014B9670
:102910000E944210B301CE014B960E94960F69EBC4
:1029200073E00E947D0FB1010E94960F64EC73E08A
:102930000E947D0FB8010E94960FFC016081718199
:102940008091A1069091A2060E94A710CE014B96FD
:102950000E94E10FC3010E94E10FC1010E94E10F3B
:10296000C8010E94E10F24E630E04DE152E060ED45
:1029700073E08DEB96E00E947B0624E630E04DE1AB
:1029800052E06CEE73E08DEB96E00E947B0624E64D
:1029900030E04DE152E064E174E08DEB96E00E949E
:1029A0007B0624E630E04DE152E063E274E08DEB1B
:1029B00096E00E947B0624E630E04DE152E061E3C0
:1029C00074E08DEB96E00E947B0624E630E04DE15A
:1029D00052E065E474E08DEB96E00E947B0624E60D
:1029E00030E04DE152E061E874E08DEB96E00E944A
:1029F0007B0624E630E049EB54E062EC74E08DEBBA
:102A000096E00E947B0622E0B701A601C8010E9461
:102A1000E60FC501B4010E94A41D4AE0C1010E9455
:102A2000161069A17AA18BA19CA10E94A41D4AE065
:102A3000C3010E9416106AED74E0CE014B960E940D
:102A40004210B301CE014B960E94960F6AEE74E0DD
:102A50000E947D0FB1010E94960F68EF74E00E9402
:102A60007D0FB8010E94960F61E372E00E947D0F16
:102A7000FC016081718120E137E24DE152E08DEB94
:102A800096E00E947B06CE014B960E94E10FC301A7
:102A90000E94E10FC1010E94E10FC8010E94E10FF5
:102AA00028E833E142E055E06FE075E08DEB96E019
:102AB0000E947B0661E275E08FEB96E00E9466065D
:102AC00083E090E09A838983C8010E949206109265
:102AD000DF0523CE10920107109203071092020720
:102AE000E1E0F7E0129286E0E93FF807D9F76AEFF4
:102AF00070E080E090E00E9487039BCECF93DF934D
:102B00001092E5051092E40588EE93E0A0E0B0E0B5
:102B10008093E6059093E705A093E805B093E90557
:102B200087E191E09093E3058093E20585EC90E0E6
:102B30009093EF058093EE0584EC90E09093F1057F
:102B40008093F00580EC90E09093F3058093F2057C
:102B500081EC90E09093F5058093F40582EC90E091
:102B60009093F7058093F60586EC90E09093F90535
:102B70008093F8051092FB051092FC051092FD055C
:102B80001092FE0560E084E00E944B03ECEAF2E064
:102B9000E491E093F606E8E9F2E0E491F0E0EE0F6C
:102BA000FF1FE657FD4F859194919093F80680930F
:102BB000F706109201071092030710920207E1E056
:102BC000F7E0129286E0E93FF807D9F71092C206C3
:102BD0001092C10688EE93E0A0E0B0E08093C306B7
:102BE0009093C406A093C506B093C60681E391E016
:102BF0009093C0068093BF061092D6061092D50619
:102C00001092D8061092D7061092DA061092D906C2
:102C10001092DC061092DB066091DD066E7F6D7F00
:102C20006093DD066695617081E068278AE00E9406
:102C30001B0361E08AE00E944B03E2EBF2E0E491C7
:102C4000E093CF06EEE9F2E0E491F0E0EE0FFF1F33
:102C5000E058FD4F859194919093D1068093D006D2
:102C600060E089E00E944B038091DD0681FD04C095
:102C700061E089E00E941B0389E08093CB06E1EBD1
:102C8000F2E0E491E093CC06EDE9F2E0E491F0E0CB
:102C9000EE0FFF1FE657FD4F859194919093CE065E
:102CA0008093CD0682E390E09093BE068093BD06AC
:102CB00061E00E944B031092DA061092D90610923E
:102CC000D8061092D7061092D6061092D5068DE936
:102CD00091E09093DC068093DB069091CB069631D1
:102CE00008F057C02DEB30E03093D6062093D50680
:102CF0002BE931E03093D8062093D7062CE231E05F
:102D00003093DA062093D90620916800983050F06D
:102D100031E09E3008F430E081E001C0880F3A9540
:102D2000EAF701C084E0822B80936800983038F085
:102D30009E3040F0963148F020E030E008C02DE6AB
:102D400030E005C02BE630E002C02CE630E03093E6
:102D5000D3062093D206983030F481E001C0880F6A
:102D60009A95EAF70EC0292F30E09E3018F42850CB
:102D7000310902C02E50310981E001C0880F2A9527
:102D8000EAF78093D4068091DB069091DC060197E8
:102D9000F1F78091D9069091DA06892B49F1E091FB
:102DA0008106F091820686E0EF3BF80709F1309743
:102DB00039F0A389B4899C918589809589238C9366
:102DC0008091DD068E7F8093DD0610928006109242
:102DD0007F068FEB96E09093820680938106E091C8
:102DE000D206F091D30690818091D406892B8083FE
:102DF00086E090E09093B5068093B40687E090E07B
:102E00009093B7068093B60688E090E09093B90659
:102E10008093B80661E086E00E944B0361E08091F8
:102E2000B6060E944B0361E08091B8060E944B03F6
:102E300089E291E09093A8068093A7061092AC06D1
:102E40001092AD061092AE061092AF0680E090E0B0
:102E5000A0E8BFE38093B0069093B106A093B206BA
:102E6000B093B30683E18093A90682E18093AA061A
:102E700061E083E10E944B0360E08091AA060E941A
:102E80004B0381E08093AB0660E08091A9060E942D
:102E90001B0387EA96E00E94D20469E375E081EAA9
:102EA00096E00E94421069E375E083E896E00E9494
:102EB000421067E475E089E896E00E944210C0E0A5
:102EC000D0E063E372E0CE018157994F0E94421037
:102ED0002696C231D105A9F7DF91CF910895EF92DF
:102EE0000F931F93CF93DF93E80147FD02C034E0B7
:102EF00001C034E1E42F440FFF0BF7FF03C0F1954D
:102F0000E195F109E32E022F2E2FAE010E94071941
:102F1000CE01DF91CF911F910F91EF900895CF9344
:102F2000DF938230910510F482E090E0E091060793
:102F3000F091070720E030E0C0E0D0E0309711F1D9
:102F40004081518148175907C0F04817590761F46B
:102F500082819381209719F09B838A832BC0909361
:102F600007078093060726C02115310519F042177F
:102F7000530718F49A01BE01DF01EF010280F381CB
:102F8000E02DDCCF2115310509F1281B390B243048
:102F9000310590F412968D919C91139761157105EE
:102FA00021F0FB019383828304C0909307078093F1
:102FB0000607FD01329644C0FD01E20FF31F819325
:102FC0009193225031092D933C933AC020910407EC
:102FD00030910507232B41F420910D0130910E0112
:102FE000309305072093040720910B0130910C01C9
:102FF0002115310541F42DB73EB740910F01509195
:103000001001241B350BE0910407F0910507E2172E
:10301000F307A0F42E1B3F0B2817390778F0AC01FB
:103020004E5F5F4F2417350748F04E0F5F1F5093D8
:103030000507409304078193919302C0E0E0F0E01C
:10304000CF01DF91CF9108950F931F93CF93DF931B
:10305000009709F48CC0FC01329713821282009110
:103060000607109107070115110581F420813181B0
:10307000820F931F20910407309105072817390705
:1030800079F5F0930507E093040771C0D80140E09B
:1030900050E0AE17BF0750F412962D913C91139754
:1030A000AD012115310509F1D901F3CF9D01DA01F7
:1030B0003383228360817181860F971F8217930764
:1030C00069F4EC0128813981260F371F2E5F3F4FAD
:1030D000318320838A819B8193838283452B29F4CA
:1030E000F0930707E093060742C01396FC93EE9314
:1030F0001297ED01499159919E01240F351FE21756
:10310000F30771F480819181840F951F02961196C7
:103110009C938E938281938113969C938E931297A6
:10312000E0E0F0E0D80112968D919C911397009702
:1031300019F0F8018C01F6CF8D919C9198012E5FCA
:103140003F4F820F931F20910407309105072817E6
:10315000390769F4309729F410920707109206078F
:1031600002C0138212821093050700930407DF91B7
:10317000CF911F910F910895FC0188279927E8941A
:1031800021912032E9F3293010F02E30C8F32B3290
:1031900041F02D3239F4689404C00E94DA18820F8D
:1031A000911D219120532A30C0F31EF490958195F2
:1031B0009F4F08957AE0979F902D879F802D910DC6
:1031C000112408954532510520F4423010F00C943A
:1031D000ED18FB011082CB010895BB27FB01552799
:1031E000AA27880F991FAA1FA41710F0A41B839564
:1031F0005051B9F7A05DAA3308F0A95DA1930097DB
:1032000079F7B111B1931192CB010C946D1B4F92D0
:103210005F926F927F929F92AF92BF92CF92DF9216
:10322000EF92FF920F931F93CF93DF93CDB7DEB74B
:1032300029970FB6F894DEBF0FBECDBF6A01122FDB
:10324000B02E2BE3201720F0FF24F394F00E02C0E1
:10325000BCE3FB2E0F2D27E0AE014F5F5F4F0E94B6
:10326000951AAC018981982F9970913031F0E1FC69
:1032700006C0E0FE06C090E205C09DE203C09BE2EE
:1032800001C090E0EE2DE07183FF3CC0911102C0BF
:1032900083E001C084E0811718F4212F281B01C0AE
:1032A00020E0E1110BC0F601822F30E2882319F0F3
:1032B00031938150FBCFC20ED11C20E0992329F01D
:1032C000D6019C93F60131966F01C6010396E2FE8A
:1032D0000AC03EE4D6013C9341E411964C93119709
:1032E00012963C9306C03EE6F601308341E64183E8
:1032F0003283FC01322F40E2332309F442C0419370
:103300003150FACF82FF44C0911102C083E001C066
:1033100084E0811718F4212F281B01C020E0E1115F
:103320000BC0F601822F30E2882319F031938150CF
:10333000FBCFC20ED11C20E0992329F0D6019C932B
:10334000F60131966F01C6010396E2FE0BC039E427
:10335000D6013C933EE411963C93119736E41296C5
:103360003C9307C039E6F60130833EE6318336E60A
:103370003283FC01322F40E2332319F04193315064
:10338000FBCFFC01E20FF11D10828EEF9FEFB7C063
:10339000F1E0911101C0F0E06F2F70E014161506F6
:1033A00024F49A012F5F3F4F02C021E030E0260F46
:1033B000371FBB2029F06B2D70E06F5F7F4F02C07D
:1033C00060E070E0260F371F612F70E02617370787
:1033D0001CF4121B212F01C020E03E2D387159F43E
:1033E000D601322F60E2332319F06D933150FBCFB9
:1033F000C20ED11C20E0FF2331F0D6019C93B60110
:103400006F5F7F4F6B01E1110BC0F601922F30E32C
:10341000992319F031939150FBCFC20ED11C20E0BB
:103420009F2D940F3A81782F7071A72E84FF03C0CF
:10343000313309F49150191624F4993018F098E0BA
:1034400001C091E0E42F852F57FF02C0E0E080E04B
:103450006E2F782FE0E0F0E0AEE29A2E3A01691A82
:1034600071082A01461A570A0B2D10E01195019593
:1034700011096F3F8FEF780729F4D6019C92C6019E
:1034800001966C014617570784F0661677066CF4B0
:103490007F01E40CF51CA1E0B0E0AC0FBD1FEA0E0B
:1034A000FB1ED7011196BC9002C090E3B92E61506B
:1034B00071093196C60101967C016017710724F0ED
:1034C000D601BC926C01D5CF6417750741F4363331
:1034D00020F4353321F4A11002C081E3B82EF601A7
:1034E000B082F701822F90E2882319F091938150E6
:1034F000FBCFF701E20FF11D108280E090E02996EA
:103500000FB6F894DEBF0FBECDBFDF91CF911F91F4
:103510000F91FF90EF90DF90CF90BF90AF909F9072
:103520007F906F905F904F900895283008F027E0CB
:103530003327DA01990F311D87FD916000966105EF
:10354000710539F432602E5F3D9330E32A95E1F73F
:1035500008959F3F30F080387105610509F03C5FA8
:103560003C5F3D93913008F08068911DDF93CF93CD
:103570001F930F93FF92EF92192F987F9695E92F43
:1035800096959695E90FFF27EE53FF4F992733271E
:10359000EE24FF24A701E70105900894079428F47E
:1035A000360FE71EF81E491F511D660F771F881F33
:1035B000991F0694A1F70590079428F4E70EF81ECA
:1035C000491F561FC11D770F881F991F661F06943C
:1035D000A1F70590079428F4F80E491F561FC71F3E
:1035E000D11D880F991F661F771F0694A1F70590BC
:1035F000079420F4490F561FC71FD81F990F661F45
:10360000771F881F0694A9F784911095177041F0D1
:10361000D695C79557954795F794E7941A95C1F7AE
:10362000E8E6F0E0689415901591359165919591D3
:1036300005907FE27395E118F10A430B560BC90B15
:10364000D009C0F7E10CF11E431F561FC91FD01D42
:103650007EF4703311F48A95E6CFE894015030F08F
:10366000080F0AF40027021708F4202F2395022FD1
:103670007A3328F079E37D932A95E9F710C07D939A
:103680002A9589F606949795679537951795179417
:10369000E118F10A430B560BC90BD00998F023959A
:1036A0007E9173957A3308F070E37C932013B8F71A
:1036B0007E9170617D9330F0839571E37D9370E32B
:1036C0002A95E1F71124EF90FF900F911F91CF9170
:1036D000DF91992787FD90950895DC01FC01672F04
:1036E00071917723E1F7329704C07C916D937083D9
:1036F0006291AE17BF07C8F30895E89409C097FB1D
:103700003EF490958095709561957F4F8F4F9F4FB8
:103710009923A9F0F92F96E9BB279395F6958795FC
:1037200077956795B795F111F8CFFAF4BB0F11F4BF
:1037300060FF1BC06F5F7F4F8F4F9F4F16C0882366
:1037400011F096E911C0772321F09EE8872F762F9C
:1037500005C0662371F096E8862F70E060E02AF0DD
:103760009A95660F771F881FDAF7880F96958795C9
:1037700097F908950E94CD1B0C943E1C0E94301CAA
:1037800038F00E94371C20F0952311F00C94271C70
:103790000C942D1C11240C94721C0E944F1C70F36D
:1037A000959FC1F3950F50E0551F629FF001729FE6
:1037B000BB27F00DB11D639FAA27F00DB11DAA1FF5
:1037C000649F6627B00DA11D661F829F2227B00D42
:1037D000A11D621F739FB00DA11D621F839FA00DCD
:1037E000611D221F749F3327A00D611D231F849F1D
:1037F000600D211D822F762F6A2F11249F57504074
:103800009AF0F1F088234AF0EE0FFF1FBB1F661FEE
:10381000771F881F91505040A9F79E3F510580F0B7
:103820000C94271C0C94721C5F3FE4F3983ED4F375
:10383000869577956795B795F795E7959F5FC1F75B
:10384000FE2B880F911D9695879597F9089597F906
:103850009F6780E870E060E008959FEF80EC089536
:1038600000240A941616170618060906089500245F
:103870000A9412161306140605060895092E0394D9
:10388000000C11F4882352F0BB0F40F4BF2B11F44D
:1038900060FF04C06F5F7F4F8F4F9F4F089557FDAC
:1038A0009058440F551F59F05F3F71F04795880FAE
:1038B00097FB991F61F09F3F79F087950895121645
:1038C00013061406551FF2CF4695F1DF08C01616F1
:1038D00017061806991FF1CF8695710561050894A2
:1038E0000895E894BB2766277727CB0197F90895B9
:1038F0002F923F924F925F926F927F928F929F9200
:10390000AF92BF92CF92DF92EF92FF920F931F93ED
:10391000CF93DF93CDB7DEB7CA1BDB0B0FB6F8949E
:10392000DEBF0FBECDBF09942A88398848885F84DE
:103930006E847D848C849B84AA84B984C884DF804F
:10394000EE80FD800C811B81AA81B981CE0FD11D33
:103950000FB6F894DEBF0FBECDBFED010895A29F54
:10396000B001B39FC001A39F700D811D1124911D53
:10397000B29F700D811D1124911D08955058BB27D1
:10398000AA270E94D61C0C943E1C0E94301C38F0C2
:103990000E94371C20F039F49F3F19F426F40C9450
:1039A0002D1C0EF4E095E7FB0C94271CE92F0E94D8
:1039B0004F1C58F3BA17620773078407950720F066
:1039C00079F4A6F50C94711C0EF4E0950B2EBA2F29
:1039D000A02D0B01B90190010C01CA01A001112415
:1039E000FF27591B99F0593F50F4503E68F11A16C1
:1039F000F040A22F232F342F4427585FF3CF469552
:103A000037952795A795F0405395C9F77EF41F1673
:103A1000BA0B620B730B840BBAF09150A1F0FF0F3D
:103A2000BB1F661F771F881FC2F70EC0BA0F621F29
:103A3000731F841F48F4879577956795B795F79519
:103A40009E3F08F0B0CF9395880F08F09927EE0FAE
:103A50009795879508950E943F1D0C943E1C0E94E7
:103A6000371C58F00E94301C40F029F45F3F29F0C9
:103A70000C94271C51110C94721C0C942D1C0E9448
:103A80004F1C68F39923B1F3552391F3951B550B04
:103A9000BB27AA2762177307840738F09F5F5F4F21
:103AA000220F331F441FAA1FA9F335D00E2E3AF060
:103AB000E0E832D091505040E695001CCAF72BD078
:103AC000FE2F29D0660F771F881FBB1F26173707C9
:103AD0004807AB07B0E809F0BB0B802DBF01FF27FB
:103AE00093585F4F3AF09E3F510578F00C94271C95
:103AF0000C94721C5F3FE4F3983ED4F3869577955F
:103B00006795B795F7959F5FC9F7880F911D9695B3
:103B1000879597F90895E1E0660F771F881FBB1F0F
:103B2000621773078407BA0720F0621B730B840BBC
:103B3000BA0BEE1F88F7E09508950E94A41D6894C3
:103B4000B1110C94721C08950E94571C88F09F5765
:103B500098F0B92F9927B751B0F0E1F0660F771FB1
:103B6000881F991F1AF0BA95C9F714C0B13091F0A7
:103B70000E94711CB1E008950C94711C672F782F7E
:103B80008827B85F39F0B93FCCF38695779567956C
:103B9000B395D9F73EF490958095709561957F4FD8
:103BA0008F4F9F4F089597FB072E16F4009407D070
:103BB00077FD09D00E940B1F07FC05D03EF49095BD
:103BC00081959F4F0895709561957F4F0895A1E26B
:103BD0001A2EAA1BBB1BFD010DC0AA1FBB1FEE1F87
:103BE000FF1FA217B307E407F50720F0A21BB30BD2
:103BF000E40BF50B661F771F881F991F1A9469F74E
:103C000060957095809590959B01AC01BD01CF01A9
:103C10000895052E97FB1EF400940E94201E57FD68
:103C200007D00E94E71D07FC03D04EF40C94201E21
:103C300050954095309521953F4F4F4F5F4F0895D8
:103C400090958095709561957F4F8F4F9F4F089508
:103C5000E894DF93CF93FC01DB010E94AF1C7F93BC
:103C60006F93E9019A01AC01BF93AF933F932F93F8
:103C7000DF010E94AF1C26F46C1B7D0B820B930BA3
:103C80009E01EB01FC010E94251FAF91BF912F9176
:103C90003F910E94251FBE01CF01F9012F913F9155
:103CA000CF91DF910895689401C0E894F92FF12B2A
:103CB00012F00C94871EA0E0B0E0E1E6FEE10C9467
:103CC0007E1C092E059422F40E94E31E112392F417
:103CD000F0E80F26FFEFE094F09400951095B09473
:103CE000C094D094A194BF0ACF0ADF0AEF0AFF0A5A
:103CF0000F0B1F0B0E94921E07FC0E94E31ECDB704
:103D0000DEB7ECE00C949A1C689401C0E8948F92A2
:103D10009F92CF93DF930E94921EDF91CF919F904D
:103D20008F90089588249924F401E401B0E49F93CE
:103D3000AA279A158B049C04ED05FE05CF05D00734
:103D4000A10798F4AD2FDC2FCF2FFE2FE92D982C53
:103D5000892E982F872F762F652F542F432F322FA0
:103D60002227B85031F7BF9127C01B2EBF91BB2728
:103D7000220F331F441F551F661F771F881F991F6F
:103D8000881C991CEE1FFF1FCC1FDD1FAA1FBB1F25
:103D90008A149B04EC05FD05CE05DF05A007B107DD
:103DA00048F08A189B08EC09FD09CE09DF09A00B31
:103DB000B10B21601A94E1F62EF49401AF01BE011B
:103DC000CD01000C08956095709580959095309583
:103DD0004095509521953F4F4F4F5F4F6F4F7F4F0D
:103DE0008F4F9F4F08950024A7FD00942A0F301D88
:103DF000401D501D601D701D801D901D08950024E4
:103E0000A7FD00942A173005400550056005700590
:103E1000800590050895AA1BBB1B51E107C0AA1F8E
:103E2000BB1FA617B70710F0A61BB70B881F991F5B
:103E30005A95A9F780959095BC01CD010895EE0F94
:103E4000FF1F0590F491E02D09940E94AF1C460FCE
:103E5000571FC81FD91F08F431960895A0E0B0E09D
:103E6000E4E3FFE10C947C1CEC01009721F4CB010E
:103E70000E948F17B8C0FC01E60FF71F9C0122506B
:103E80003109E217F30708F4ACC0D9010D911C9178
:103E9000119706171707B0F00530110508F49FC0F9
:103EA000C80104978617970708F499C002501109B2
:103EB000061B170B019311936D937C93CF010E9406
:103EC00024188DC05B01A01AB10A4C01800E911E0E
:103ED000A0910607B091070740E050E0E12CF12CDB
:103EE000109709F44AC0A815B905D1F56D907C90DA
:103EF0001197630182E0C80ED11CCA14DB0480F163
:103F0000A3014A195B096A0182E0C80ED11C12960E
:103F1000BC9012971396AC91B5E0CB16D10440F04B
:103F2000B282A38351834083D9016D937C930AC0ED
:103F30000E5F1F4FC301800F911FF9019183808392
:103F4000EB2DFA2FE114F10431F0D7011396FC9315
:103F5000EE93129744C0F0930707E09306073FC023
:103F60008D919C9111974817590708F4AC017D0178
:103F700012960D90BC91A02DB3CF80910407909123
:103F8000050788159905E1F446175707C8F480918D
:103F90000B0190910C01009741F48DB79EB74091B1
:103FA0000F0150911001841B950BE817F907C8F415
:103FB000F0930507E0930407F901718360830FC054
:103FC000CB010E948F177C01009759F0A801BE0118
:103FD0000E94FD1FCE010E942418C70104C0CE011B
:103FE00002C080E090E0CDB7DEB7EEE00C94981C04
:103FF00081E090E0F8940C940F23FB01DC0102C0F7
:1040000001900D9241505040D8F70895FB01DC011A
:104010008D91019080190110D9F3990B0895FB013E
:10402000DC0101900D920020E1F70895FB01DC0115
:104030004150504030F08D910190801919F40020CA
:10404000B9F7881B990B0895FB0151915523A9F0ED
:10405000BF01DC014D9145174111E1F759F4CD0144
:104060000190002049F04D9140154111C9F3FB0129
:104070004111EFCF81E090E001970895AEE0B0E00C
:10408000E4E4F0E20C94861C0D891E898F89988DDA
:1040900026E02C831A83098397FF02C080E090E812
:1040A00001979E838D83AE01455E5F4F698D7A8D4A
:1040B000CE0101960E9491204D815E8157FD0AC07C
:1040C0002F813885421753070CF49A01F801E20F4B
:1040D000F31F10822E96E4E00C94A21CAEE0B0E038
:1040E000E4E7F0E20C94861C0D891E8986E08C833F
:1040F0001A8309838FEF9FE79E838D83AE01475E0E
:104100005F4F6F89788DCE0101960E9491202F819B
:104110003885F801E20FF31F10822E96E4E00C942C
:10412000A21CACE0B0E0E7E9F0E20C94781C7C0162
:104130006B018A01FC0117821682838181FFBDC158
:10414000CE0101964C01F7019381F60193FD859113
:1041500093FF81916F01882309F4ABC1853239F453
:1041600093FD859193FF81916F01853229F4B70109
:1041700090E00E947922E7CF512C312C20E02032B0
:10418000A0F48B3269F030F4803259F0833269F454
:1041900020612CC08D3239F0803339F4216026C083
:1041A0002260246023C0286021C027FD27C030ED95
:1041B000380F3A3078F426FF06C0FAE05F9E300DE3
:1041C0001124532E13C08AE0389E300D1124332E53
:1041D00020620CC08E3221F426FD6BC1206406C023
:1041E0008C3611F4206802C0883641F4F60193FD44
:1041F000859193FF81916F018111C1CF982F9F7D90
:104200009554933028F40C5F1F4FFFE3F9830DC0E2
:10421000833631F0833771F0833509F05BC022C0FB
:10422000F801808189830E5F1F4F44244394512CF1
:10423000540115C03801F2E06F0E711CF801A08026
:10424000B18026FF03C0652D70E002C06FEF7FEFE5
:10425000C5012C870E946E222C0183012C852F77AB
:10426000222E17C03801F2E06F0E711CF801A080F9
:10427000B18026FF03C0652D70E002C06FEF7FEFB5
:10428000C5012C870E9463222C012C852068222ED8
:10429000830123FC1BC0832D90E048165906B0F41F
:1042A000B70180E290E00E9479223A94F4CFF501C0
:1042B00027FC859127FE81915F01B70190E00E9464
:1042C000792231103A94F1E04F1A51084114510407
:1042D00071F7E5C0843611F0893639F5F80127FF0A
:1042E00007C060817181828193810C5F1F4F08C07C
:1042F00060817181072E000C880B990B0E5F1F4F98
:104300002F76722E97FF09C09095809570956195D4
:104310007F4F8F4F9F4F2068722E2AE030E0A4011C
:104320000E94B122A82EA81844C0853729F42F7EF8
:10433000B22E2AE030E025C0F22FF97FBF2E8F3653
:10434000C1F018F4883579F0B4C0803719F0883797
:1043500021F0AFC02F2F2061B22EB4FE0DC08B2DE7
:104360008460B82E09C024FF0AC09F2F9660B92E22
:1043700006C028E030E005C020E130E002C020E1C6
:1043800032E0F801B7FE07C06081718182819381BC
:104390000C5F1F4F06C06081718180E090E00E5F6E
:1043A0001F4FA4010E94B122A82EA818FB2DFF7751
:1043B0007F2E76FE0BC0372D3E7FA51450F474FE81
:1043C0000AC072FC08C0372D3E7E05C0BA2C372DBE
:1043D00003C0BA2C01C0B52C34FF0DC0FE01EA0D9C
:1043E000F11D8081803311F4397E09C032FF06C08F
:1043F000B394B39404C0832F867809F0B39433FD4B
:1044000013C030FF06C05A2CB31418F4530C5B18B9
:10441000B32CB31468F4B70180E290E03C870E94AB
:104420007922B3943C85F5CFB31410F43B1801C046
:10443000312C34FF12C0B70180E390E03C870E942A
:1044400079223C8532FF17C031FD03C088E790E038
:1044500002C088E590E0B7010CC0832F867859F040
:1044600031FF02C08BE201C080E237FD8DE2B7016F
:1044700090E00E947922A51438F4B70180E390E01F
:104480000E9479225A94F7CFAA94F401EA0DF11D03
:104490008081B70190E00E947922A110F5CF3320EE
:1044A00009F451CEB70180E290E00E9479223A945B
:1044B000F6CFF7018681978102C08FEF9FEF2C9690
:1044C000E2E10C94941CFC010590615070400110D5
:1044D000D8F7809590958E0F9F1F0895FC0161502D
:1044E000704001900110D8F7809590958E0F9F1F16
:1044F00008950F931F93CF93DF93FB01238121FD39
:1045000003C08FEF9FEF28C022FF16C0468157815E
:10451000248135814217530744F4A081B1819D0164
:104520002F5F3F4F318320838C93268137812F5F0C
:104530003F4F3783268310C0EB01092F182F0084CB
:10454000F185E02D0995892BE1F68E819F810196F9
:104550009F838E83812F902FDF91CF911F910F9199
:104560000895FA01AA27283051F1203181F1E89409
:104570006F936E7F6E5F7F4F8F4F9F4FAF4FB1E056
:104580003ED0B4E03CD0670F781F891F9A1FA11D51
:10459000680F791F8A1F911DA11D6A0F711D811D52
:1045A000911DA11D20D009F468943F912AE0269F17
:1045B00011243019305D3193DEF6CF010895462F76
:1045C0004770405D4193B3E00FD0C9F7F6CF462F57
:1045D0004F70405D4A3318F0495D31FD40524193C0
:1045E00002D0A9F7EACFB4E0A6959795879577957D
:1045F0006795BA95C9F700976105710508959B0104
:10460000AC010A2E06945795479537952795BA958C
:10461000C9F7620F731F841F951FA01D089511E035
:10462000CFE5D1E004C0FE010E941F1F2196C036D5
:08463000D107C9F7F894FFCF90
:1046380001000100680100D801D8010000080780C6
:1046480000050000000000EC0B590B840B330CB57F
:104658000B930BA70B000000002705870200000042
:1046680000F201590B8002F10146025E02D90141B4
:10467800542B434D47523D002B434D47523A003F80
:10468800002F636F6E660A2F616C61726D5B302D4F
:10469800315D3D5B302D315D0A2F74696D65723D6A
:1046A8005B312D39395D5B682C6D2C645D0A2F6197
:1046B80064646E756D3D2B283132295B302D395D70
:1046C8000A2F726D6E756D3D2B283132295B302DA6
:1046D800395D0A2F62616C616E63650A2F746172BD
:1046E8006500436F6E6669677572696E67206D6FE6
:1046F80064652064697361626C65642E002F636F62
:104708006E66002F616C61726D00496E6465782079
:104718006572726F72203A200053796E7461782046
:104728006572726F720057726F6E6720666F726D76
:104738006174002F6164646E756D3D002F726D6E3B
:10474800756D3D002F62616C616E6365004F4B00B3
:1047580041542B435553443D312C222A31313123C6
:10476800220D0A002B435553443A00546172656484
:104778002100556E6B6E6F6E7720636F6D6D616E85
:10478800640041542B434D47463D310D0A004154C6
:104798002B434D47533D22003E002F616C61726DE3
:1047A800303D000A2F616C61726D313D000A2F7433
:1047B800696D65723D000A6E756D626572733A0ABD
:1047C800004552524F523A434D4753004552524FBB
:1047D800523A434D4746002B434D47533A00415404
:1047E8002B434D47443D312C340D0A00416C6C205D
:1047F8006E756D626572732066696C6C6564206F96
:104808007574004E756D6265722072656D6F76699C
:104818006E67206572726F720043616E277420673D
:1048280065742062616C616E6365007077722068E0
:10483800696768004265666F726520696E69740011
:10484800726274207272004F4B0D0A0041540D0AB7
:104858000041542B4346554E3D310D0A0041542B1F
:104868004350494E3F0D0A002B4350494E3A2052BF
:104878004541445900537472740067707273206F15
:1048880066660067707273206F6E0073696D2073BF
:104898007472746400496E747272707473206174F7
:1048A8007463686400616C726D207472677264006E
:1048B800414C41524D21004E6F626F647920616E08
:1048C8007377657265642100746D72207472677203
:1048D8006400526573657465640074656D70657213
:1048E8006174757265203A20000A77656967746893
:1048F800203A20000A766F6C74616765203A2000C0
:1049080041542B53415042523D332C312C436F6E4E
:10491800747970652C475052530D0A0041542B533B
:10492800415042523D332C312C41504E2C777777F1
:104938002E61622E6B79697661737461722E6E6571
:10494800740D0A0041542B53415042523D312C31D1
:104958000D0A0041542B48545450494E49540D0AED
:104968000041542B48545450504152413D4349440E
:104978002C310D0A0041542B485454505041524197
:104988003D55524C2C687474703A2F2F67707273AF
:104998006265652E617A757265776562736974659B
:1049A800732E6E65742F6D61696E2E7068700D0AB6
:1049B8000041542B48545450504152413D434F4EAE
:1049C80054454E542C6170706C69636174696F6EE4
:1049D8002F782D7777772D666F726D2D75726C65D0
:1049E8006E636F6465640D0A00444F574E4C4F4127
:1049F800440041542B48545450444154413D3332AF
:104A0800302C31303030300D0A006B65793D313251
:104A180033267765696768743D002674656D70652F
:104A28007261747572653D0026766F6C7461676596
:104A38003D002B48545450414354494F4E3A00418D
:104A4800542B48545450414354494F4E3D310D0A5C
:104A58000041542B485454505445524D0D0A006699
:104A68007265652072616D3A002B33383039363201
:104A7800313335383635002B333830353033323131
:104A8800333631300041542B434F4C503D310D0AE1
:104A980000434F4C50000D0A41544425733B0D0A06
:104AA800002B434F4C503A004154480D0A004154E2
:0E4AB8002B434D47533D222573220D0A00006B
:107E0000112484B714BE81FFF0D085E080938100F7
:107E100082E08093C00088E18093C10086E0809377
:107E2000C20080E18093C4008EE0C9D0259A86E02C
:107E300020E33CEF91E0309385002093840096BBD3
:107E4000B09BFECF1D9AA8958150A9F7CC24DD24C4
:107E500088248394B5E0AB2EA1E19A2EF3E0BF2EE7
:107E6000A2D0813461F49FD0082FAFD0023811F036
:107E7000013811F484E001C083E08DD089C08234E0
:107E800011F484E103C0853419F485E0A6D080C0E4
:107E9000853579F488D0E82EFF2485D0082F10E0AE
:107EA000102F00270E291F29000F111F8ED06801E7
:107EB0006FC0863521F484E090D080E0DECF843638
:107EC00009F040C070D06FD0082F6DD080E0C81688
:107ED00080E7D80618F4F601B7BEE895C0E0D1E017
:107EE00062D089930C17E1F7F0E0CF16F0E7DF06D8
:107EF00018F0F601B7BEE89568D007B600FCFDCFD4
:107F0000A601A0E0B1E02C9130E011968C91119780
:107F100090E0982F8827822B932B1296FA010C0160
:107F200087BEE89511244E5F5F4FF1E0A038BF0790
:107F300051F7F601A7BEE89507B600FCFDCF97BE46
:107F4000E89526C08437B1F42ED02DD0F82E2BD052
:107F50003CD0F601EF2C8F010F5F1F4F84911BD097
:107F6000EA94F801C1F70894C11CD11CFA94CF0C13
:107F7000D11C0EC0853739F428D08EE10CD085E9AC
:107F80000AD08FE07ACF813511F488E018D01DD067
:107F900080E101D065CF982F8091C00085FFFCCF94
:107FA0009093C60008958091C00087FFFCCF809118
:107FB000C00084FD01C0A8958091C6000895E0E648
:107FC000F0E098E1908380830895EDDF803219F02E
:107FD00088E0F5DFFFCF84E1DECF1F93182FE3DFCA
:107FE0001150E9F7F2DF1F91089580E0E8DFEE27F6
:047FF000FF270994CA
:027FFE00040479
:0400000300007E007B
:00000001FF